:020000040800F2
:10000000E082002005A10008959E0008979E000848
:10001000999E00089B9E00089D9E0008000000001D
:100020000000000000000000000000009F9E00088B
:10003000A19E000800000000A39E0008A59E0008E5
:1000400039A100083DA1000841A1000845A1000810
:1000500049A100084DA1000851A1000855A10008C0
:1000600059A100085DA1000861A1000865A1000870
:1000700069A100086DA1000871A1000875A1000820
:1000800079A100087DA1000881A1000885A10008D0
:1000900089A100088DA1000891A1000895A1000880
:1000A00099A100089DA10008A1A10008A5A1000830
:1000B000A9A10008ADA10008B1A10008B5A10008E0
:1000C000B9A10008BDA10008C1A10008C5A1000890
:1000D000C9A10008CDA10008D1A10008D5A1000840
:1000E000D9A10008DDA10008E1A10008E5A10008F0
:1000F000E9A10008EDA10008F1A10008F5A10008A0
:10010000F9A10008FDA1000801A2000805A200084D
:1001100009A200080DA200086F2C000811A2000817
:1001200015A2000819A200081DA2000821A20008BB
:1001300025A20008000000000000000029A200081D
:100140002DA2000831A2000835A20008A99E0008CF
:10015000AF9E000839A200083DA2000841A2000895
:1001600045A2000849A200084DA2000851A20008BB
:1001700055A2000859A200085DA200080000000076
:100180000000000061A20008000000000000000064
:1001900065A20008000000000000000069A200083D
:1001A0000000000000000000000000006DA2000838
:1001B00071A2000875A2000879A200087DA20008BB
:1001C00081A20008DFF8642A13684FF6FF010B4094
:1001D000000200F4E0601843DFF8101C08431060D0
:1001E000704700220421DFF8080C01F02ABB01222D
:1001F0000421DFF8FC0B01F024BB10B5DFF8F44B51
:1002000000220821204601F01CFB052001F034FBF0
:10021000012208212046BDE8104001F012BB01B5C3
:1002200000224FF40061DFF8080A01F00AFB4FF0EA
:10023000FF3301226946DFF8C00B01F071FB01BDFD
:1002400038B504460D4601224FF40061DFF8E0099D
:1002500001F0F7FA4FF0FF332A4692B22146DFF859
:10026000980B01B0BDE8304001F05ABBF8B5054627
:1002700015F8016B19E02878FFF7D1FF6C78AD1CF9
:1002800004F0800714F07F0404D021462846FFF7CD
:10029000D7FF2544002F08D015F8010B0146FF2990
:1002A00001D14FF4FA7001F0E7FA3046461EC0B2B1
:1002B0000028E0D1F1BD2DE9FC4104460D4616466B
:1002C0001F462A20FFF7ABFF684600210160E84681
:1002D00088F8014088F803600421FFF7B1FF2B2064
:1002E000FFF79DFF88F8015088F8037004216846E5
:1002F000FFF7A6FF2C20FFF792FFBDE8F381000077
:1003000010B501224FF40041DFF8F00A01F099FA2C
:10031000FFF767FFFFF771FFDFF8E44A2046FFF7BA
:10032000A5FF00BF04A0FFF7A1FF04F13C00FFF709
:100330009DFFBDE810405AE7022A040000007F2B11
:10034000040000007F0000007CB504460D46164600
:10035000A0281ADA2846802817DAFFF742FF6B1C1C
:10036000DBB2621CD2B22946C9B22046C0B2FFF746
:10037000A2FF3046000A8DF800008DF801600221CE
:100380006846FFF75DFFFFF732FF73BD08B42DE944
:10039000F84716460B9C0C9D9DF825707A18531E45
:1003A000DBB29DF824201218521ED2B2C9B2C0B2DC
:1003B000FFF781FF4FF0000801E008F1010838461F
:1003C00080452BD20A98314620393A4602FB0181FA
:1003D00030F811904FF0000A9DF824008245ECD2CD
:1003E00009FA0AF000040BD42846000A8DF8000030
:1003F00028468DF8010002216846FFF721FF0AE038
:100400002046000A8DF8000020468DF801000221E8
:100410006846FFF715FF0AF1010ADDE7BDE8F107BD
:100420005DF808FB08B42DE9FE4106460F469046EC
:100430000B9D0C9CFFF7D5FE01E008F1010898F830
:100440000000002823D09DF8241011FA86F1A0297D
:1004500009DB00269DF825107F1811FA87F1802905
:1004600015DA2028E9D02046029028460190DDE9DF
:1004700009010091034618F8012B394689B230462C
:1004800080B2FFF783FF9DF824003618D7E7FFF707
:10049000AEFEBDE8F7015DF808FB2DE9FC4107461B
:1004A000884615461E46A02841DA80293FDA4019C1
:1004B000401EA02801DBC7F1A0058819401E802836
:1004C00001DBC8F18006089CFFF78BFE06EB0800F5
:1004D000431EDBB2E819421ED2B24146C9B23846C9
:1004E000C0B2FFF7E8FE2046000A8DF800008DF844
:1004F000014001224FF40061DFF8340701F0A1F957
:100500000DE04FF0FF3302226946DFF8EC0801F0FE
:1005100007FA641E204680B20028F2D1761E3046CB
:1005200080B2002801D02C46F4E7FFF760FEBDE85A
:10053000F38138B540F61C04DFF8A05C2B4602229C
:100540002146682000F09CF82B1D4FF4A0524FF478
:100550008061682000F094F841F204402B184FF4B9
:1005600080520021682000F08BF842F204402B18E2
:1005700018222146682000F083F8AB1C0222214695
:10058000682001B0BDE830407AE038B540F61C0480
:10059000DFF84C5C2B4602222146682000F070F800
:1005A0002B1D4FF4A0524FF48061682000F068F8D2
:1005B00041F204402B184FF480520021682000F0D3
:1005C0005FF842F204402B1818222146682000F000
:1005D00057F8AB1C02222146682001B0BDE830402C
:1005E0004EE038B540F61C04DFF8E45C2B460222EE
:1005F0002146682000F044F82B1D4FF4A0524FF420
:100600008061682000F03CF841F204402B184FF460
:1006100080520021682000F033F842F204402B1889
:1006200018222146682000F02BF8AB1C022221463C
:10063000682001B0BDE8304022E000B585B000225E
:100640001421684601F0C0FA4FF4C2400090002027
:100650000190029003906946DFF8D40501F01CF880
:10066000002000904FF4C0400090002001900290C4
:1006700003906946DFF87C0701F00EF805B000BD75
:100680002DE9F04180460F4614461D46DFF8706D97
:100690000020307301F0B4FB317B4046C0B201F062
:1006A000BDFB002803D0F06D401CF06502E0706DCA
:1006B000401C7065317B38460012C0B201F0AEFBC1
:1006C000002803D0F06D401CF06502E0706D401C06
:1006D0007065317B3846C0B201F0A0FB002803D022
:1006E000F06D401CF06502E0706D401C70650027E5
:1006F0000CE0706D401C706507E0E85D01F08EFB5A
:100700000028F6D0F06D401CF0657F1C317BA742BD
:10071000F3D30846BDE8F04101F02EBBFEB501F071
:10072000B5FB00F0EFF900200090DFF8D80C01696C
:1007300041F400010161016901F400010091009997
:1007400000210091016941F400110161016901F486
:1007500000110091009900210091016941F002010E
:100760000161016901F002010091009900210091ED
:10077000016941F400410161016901F40041009106
:10078000009900210091016841F0040101600168B5
:1007900001F004010091009900210091016841F0ED
:1007A00008010160016801F0080100910099002131
:1007B0000091016841F001010160016801F001014F
:1007C0000091009900210091016841F0020101604F
:1007D000006800F0020000900098DFF8246C002010
:1007E000307301F005FB0120307301F001FBFFF7CE
:1007F00024FF00F0C9F8FFF783FDC82001F03CF8A2
:10080000002000901323A0220146FFF746FE00F0CF
:1008100021F906F50C740022DFF8781C204601F05F
:1008200040FB01F058FD01F05BFDDFF86C1C204639
:1008300001F04DFBDFF8641C204602F09FF92046D2
:1008400001F04EFB012030634FF6FF7738460090F1
:100850008023A02200210846FFF71FFEF06B00F066
:10086000E9F906F5987511E0F06A401EF06201D5CD
:100870000020F062F06AC0B200F0C4FA707B002879
:1008800004D000207073F06B00F0D4F930BF306BEF
:10089000012803D100F083F900203063F07B0128A8
:1008A00003D100F081F90020F07300F009FE02F09E
:1008B00079F9F16C326D801A814219D2706C00287E
:1008C00011D1B06C01280ED10020B064F06B401C37
:1008D000F063042801DB0020F0630020F062306444
:1008E000F06B00F0A7F9706CB06402F05BF9306552
:1008F00000F02CF80400C1D0F06B0128BED12246D4
:1009000010A1284602F054F9384602904FF478407E
:100910000190DFF89C2BD2E90001009103462A46A2
:1009200052210120FFF77EFD012C02D0FF2C9BD02D
:10093000A0E7F06A401CF0620D289BDB0C20F062FF
:1009400098E70000454E433D256900000020DFF890
:10095000641B0968DFF8602B11605368994208D066
:100960008B4208D20A2B0CD24FF6E950814208D3B1
:10097000FF20516070470A2BFAD24FF6E9508142AE
:10098000F6D30120F5E7000018B585B00022142148
:10099000684601F019F948F20A0000900120019020
:1009A0000020029003906946DFF8480400F074FECE
:1009B00004200090012001900020029003906946DD
:1009C000DFF82C0400F068FE4FF400600090012076
:1009D0000190002002900390954C6946204600F05B
:1009E0005BFE48F20100009001200190002002907F
:1009F00003906946DFF8040400F04EFE4FF4A05067
:100A00000090022001900020029002200390062016
:100A100004906946204600F03FFEDFF8DC03DFF873
:100A2000281C01604FF4827141604FF400418160E5
:100A30000021C160016141614FF4007181610021B9
:100A4000C1610162416281620A21C16200F028FF36
:100A500006B010BD18B585B000221421684601F01B
:100A6000B3F8402000900220019001200290002065
:100A70000390022004906E4C6946204600F00CFE64
:100A8000802000900220019001200290002003901D
:100A9000022004906946204600F0FEFDDFF8AC0B12
:100AA00000210160816101628160016841F420617F
:100AB0000160816941F4704141F0F0018161816917
:100AC00041F0F0018161016A41F002010162016AB5
:100AD00041F020010162816941F001018161816978
:100AE00041F480718161816841F0030181604FF6BA
:100AF000FF71C16201214161016841F001010160A2
:100B000006B010BD80B50320FFF75CFB002002F0AB
:100B10006FF840F20570DFF8141B0860DFF8100B67
:100B2000016841F48031016001688903FCD5DFF878
:100B3000201B41604FF414418160816841F08001C5
:100B40008160016841F08071016001688901FCD514
:100B5000816841F002018160816801F00C0108297F
:100B6000FAD1016B41F00F010163016BC907FCD59C
:100B7000016B8907F9D5016B0907F6D5016B4907A8
:100B8000F3D5016C41F002010164016C41F40041B4
:100B90000164BDE8014001F0ACBB7047FDE70120F6
:100BA000DFF85C184873704738B5DFF85448002008
:100BB0002073A06B616B884236D00020E0656065D1
:100BC000A0658E4D02460121284600F03AFE606B7A
:100BD00000F01AFCC82000F04FFE01221146284602
:100BE00000F02FFEC82000F047FE606BA0634AF6BD
:100BF000444188420CD04BF6803188420BD0DFF85C
:100C0000381A88420AD0DFF8341A884206D007E042
:100C1000FFF78FFC04E0FFF7B8FC01E0FFF7E1FC11
:100C2000BDE8314000F0BABC31BD00000CED00E081
:100C300000080240F0B58BB004464FF6FF75284619
:100C400000906823A02215210020FFF726FC2046F3
:100C500000F090F9204600F0C5FA002641F683170F
:100C600017E03A461421304680B2FFF76DFB3A4652
:100C70006A21304680B2FFF767FB002C08D1562E60
:100C800006DA3A4606F1140189B26420FFF75CFBEC
:100C9000761CA02EE5DB002C40F0A680DFF8604734
:100CA000606B4FF47A71B0FBF1F3A27B0FF6AC11DD
:100CB00003A801F07DFFDFF8F867284602901F20A7
:100CC0000190D6E900010091034603AA162166208F
:100CD000FFF7A8FB607D00282846009017D012235C
:100CE000212229216C20FFF7D8FB9FA103A801F046
:100CF0005FFF284602901F200190D6E90001009175
:100D0000034603AA29217720FFF78CFB17E0122363
:100D1000212229216C20FFF7C0FB0FF6481103A800
:100D200001F046FF284602901F200190D6E90001FD
:100D30000091034603AA29216C20FFF773FB207D55
:100D4000002819D089A103A801F032FF284600909D
:100D5000122321223C217220FFF79FFB284602909C
:100D60001F200190D6E900010091034603AA3C210F
:100D70007220FFF757FB18E028460090122321222B
:100D80003C217220FFF789FB79A103A801F010FF35
:100D9000284602901F200190D6E9000100910346E9
:100DA00003AA3C217720FFF73DFB207C002812D0CE
:100DB0000FF6B80103A801F0FBFE4FF47840029053
:100DC0000195D6E900010091034603AA4F216C204A
:100DD000FFF728FB06E0009512232C224F216C2000
:100DE000FFF75BFB00F07CFA0BB0F0BD0000FA05EA
:100DF000000C024000040240647900200000024020
:100E0000009F00082DE9FF4180464FF6FF74204601
:100E100000906723A02215210020FFF73EFBDFF89A
:100E2000E065DFF88C564046002829D11F2002904B
:100E300020460190D5E900010091034606F16002C9
:100E400017210120FFF7EEFA204602901F200190A3
:100E5000D5E900010091034606F170022B21012023
:100E6000FFF7E0FA02941F200190D5E900010091FC
:100E7000034606F180023F210120FFF7D3FA70E01C
:100E800006F598770C2835D106F58071384601F0C3
:100E90008FFE204602901F200190D5E900010091AD
:100EA00003463A4617210120FFF7BCFA06F5887180
:100EB000384601F07DFE1F20029020460190D5E9C2
:100EC0000001009103463A462B210120FFF7AAFAC0
:100ED00006F59071384601F06BFE02941F200190D8
:100EE000D5E90001009103463A463F210120FFF772
:100EF00099FA36E006EB081606F15001384601F083
:100F000057FE204602901F200190D5E90001009174
:100F100003463A4617210120FFF784FA06F16001E3
:100F2000384601F045FE204602901F200190D5E989
:100F30000001009103463A462B210120FFF772FA87
:100F400006F17001384601F033FE1F200290019433
:100F5000D5E90001009103463A463F210120FFF701
:100F600061FABDE8FF810000485000004E61740046
:100F700046580000032800D9704778B58BB0DFE8E9
:100F800010F004004E009800E200D0A103A801F088
:100F90000FFEDFF81C454FF6FF75284602904FF60E
:100FA0001F000190D4E900010091034603AA01212A
:100FB0000320FFF737FAC7A103A801F0F9FD41F6B6
:100FC00083162846029030460190D4E90001009132
:100FD000034603AA01212B20FFF724FABEA103A890
:100FE00001F0E6FD2846029030460190D4E9000168
:100FF0000091034603AA01215B20FFF713FAB7A172
:1010000003A801F0D5FD02950196D4E900010091F5
:10101000034603AA01217B20FFF704FADCE0ABA121
:1010200003A801F0C5FDDFF8884441F683154FF6AB
:10103000FF763046029028460190D4E900010091E5
:10104000034603AA01210320FFF7ECF9A1A103A89D
:1010500001F0AEFD304602904FF61F000190D4E93A
:1010600000010091034603AA01212B20FFF7DAF9C2
:1010700099A103A801F09CFD3046029028460190FA
:10108000D4E900010091034603AA01215B20FFF788
:10109000C9F992A103A801F08BFD02960195D4E94C
:1010A00000010091034603AA01217B20FFF7BAF952
:1010B00092E086A103A801F07BFDDFF8F44341F63E
:1010C00083164FF6FF752846029030460190D4E90A
:1010D00000010091034603AA01210320FFF7A2F9B2
:1010E0007CA103A801F064FD2846029030460190DF
:1010F000D4E900010091034603AA01212B20FFF748
:1011000091F975A103A801F053FD284602904FF60E
:101110001F000190D4E900010091034603AA0121B8
:101120005B20FFF77FF96DA103A801F041FD029557
:101130000196D4E900010091034603AA01217B2016
:10114000FFF770F948E061A103A801F031FDDFF875
:10115000604341F683164FF6FF75284602903046ED
:101160000190D4E900010091034603AA0121032064
:10117000FFF758F957A103A801F01AFD284602907D
:1011800030460190D4E900010091034603AA0121F1
:101190002B20FFF747F950A103A801F009FD2846CD
:1011A00002900196D4E900010091034603AA0121AF
:1011B0005B20FFF737F949A103A801F0F9FC02957C
:1011C0004FF61F000190D4E900010091034603AAE5
:1011D00001217B20FFF726F90CB070BDF804002038
:1011E00014290020002800D0704778B58BB0A8A142
:1011F00003A801F0DDFCDFF8B8424FF6FF75804E22
:10120000F07C0028284602900CD04FF478400190E2
:10121000D4E900010091034603AA6C210320FFF7E3
:1012200001F90BE041F683100190D4E9000100912F
:10123000034603AA6C210320FFF7F4F898A103A842
:1012400001F0B6FCB07C0028284602900CD04FF488
:1012500078400190D4E900010091034603AA6C2173
:101260004520FFF7DFF80BE041F683100190D4E949
:1012700000010091034603AA6C214520FFF7D2F834
:1012800088A1307D002803A80ED001F091FC1F201A
:1012900002900195D4E900010091034603AA6C2154
:1012A0007D20FFF7BFF80EE001F082FC029541F6C9
:1012B00083100190D4E900010091034603AA6C2138
:1012C0007D20FFF7AFF80CB070BD0000494E46001E
:1012D000304D002044535000455100005345540008
:1012E00070B52DED028B8CB0454CE07C704D4FF607
:1012F000FF76A17C0246114328D0002813D00FF2BC
:10130000743103A801F054FC304602904FF4784049
:101310000190D5E900010091034603AA16211C2083
:10132000FFF780F823E060A103A801F041FC3046FC
:1013300002904FF478400190D5E9000100910346F6
:1013400003AA16212520FFF76DF810E057A103A886
:1013500001F02EFC304602901F200190D5E90001DB
:101360000091034603AA16212520FFF75BF894EDB0
:10137000088B53EC182B0020014601F083FC07D1A9
:10138000024603460FF2F42103A801F011FC15E018
:1013900051EC180BDFF89C22DFF8B83201F082FC28
:1013A00053EC182B05D20FF2E02103A801F000FC4A
:1013B00004E00FF2DC2103A801F0FAFBA07CE17C41
:1013C000084302960CD04FF478400190D5E9000113
:1013D0000091034603AA37210520FFF723F80AE00E
:1013E0001F200190D5E900010091034603AA37218F
:1013F0000520FFF717F80CB0BDEC028B70BD0000A4
:10140000000000203038024038B504464AF6444017
:1014100084420BD1294D00220221284600F011FA06
:1014200001224FF40041284600F00BFA4BF68030C1
:1014300084420BD1214D01220221284600F001FAFD
:1014400001224FF40041284600F0FBF97A4884421B
:101450000BD11A4D00220221284600F0F2F9002299
:101460004FF40041284600F0ECF9744884420DD155
:10147000124C01220221204600F0E3F900224FF431
:1014800000412046BDE8384000F0DBB931BD000026
:101490004C504600C47100206C710020B0710020D7
:1014A000485046004E41540074726500766F6C00DF
:1014B000E804002024040040F0040020000402405E
:1014C00070B55F4C0020E0825E4D4FF4005128461D
:1014D00000F0AFF9002802D0E08A401CE0824FF40F
:1014E0008041284600F0A5F9002803D0E08A401C7E
:1014F0004000E082584E4FF48041304600F099F9A8
:10150000002803D0E08A401C8000E0824FF40051A4
:10151000304600F08EF9002803D0E08A401CC0005D
:10152000E0824FF48071284600F083F96064E08A1D
:10153000142811D0682825D1208B682822D0207C3F
:10154000401E8041C00F2074257C284600F022F800
:10155000284600F021F815E0E06B002812D1208B1E
:1015600014280FD0A06A401CA062042801DB0020D0
:10157000A062607C401E8041C00F6074607C20755A
:1015800000F009F8E08A218B814201D001216173CA
:10159000208370BD7047704701F09CBB38B5284C64
:1015A0000020E06501202073002537E0002000F0D6
:1015B00035FC002802D0E06D401CE065217B2078DE
:1015C000401CC0B200F02AFC002823D0E06D401C73
:1015D000E0651FE000F014FC217B242000F01EFCDD
:1015E000002802D0E06D401CE065217B0A2DDDD093
:1015F0002846C0B200F012FC002802D0E06D401C6A
:10160000E065217B605D00F009FC002802D0E06D00
:10161000401CE065207B00F0AFFB6D1C207B0A2D99
:10162000D8DDBDE8324000F0A7BB0000003C02401E
:1016300000380240CDCCCCCC8858010000770100A6
:101640000000002000080240003C00400004004070
:1016500008544027CCCC23C00004024025692F2524
:10166000690000004C696E65000000004D757465EE
:101670000000000062617373000000002020252E2E
:101680003166646200000000252E3166646200004D
:1016900020252E3166646200F8B400232DE04FF05F
:1016A000070C05E0DFF8A8C16045F8D14FF0060C43
:1016B0000CFA06FC4CEA070C45F824C0654C266879
:1016C000D5432E404F68FF0300D516432660666859
:1016D0002E404F68BF0300D516436660A6682E40B3
:1016E0004F68FF0200D51643A660E6682E404D689D
:1016F000AD0200D51643E6605B1C0F2B00F297800D
:1017000001249C400A682240A242F5D14D68022D76
:1017100001D0122D13D11D46ED0800EB8506356A68
:101720009F0007F01C074FF00F0C0CFA07FC25EA8E
:101730000C05D1F810C00CFA07F73D433562076875
:101740005D000326AE40F643374091F804C00CF02C
:10175000030C0CFA05FC4CEA070707604F68012FE1
:1017600005D0022F03D0112F01D0122F10D187687E
:101770003740D1F80CC00CFA05FC4CEA070787602B
:101780004768A7434C68C4F300149C402743476054
:10179000C46834408E6806FA05F52C43C4604C6872
:1017A000E400A9D5002400942B4C256845F480451D
:1017B0002560246804F480440094009C1C46A4081E
:1017C000264D55F824709E0006F00C064FF00F0CC5
:1017D0000CFA06FC27EA0C07DFF884C0604502D14A
:1017E0004FF0000C64E7DFF87CC0604502D14FF099
:1017F000010C5DE7DFF870C0604502D14FF0020CCC
:1018000056E7DFF868C0604502D14FF0030C4FE7A0
:10181000DFF85CC0604502D14FF0040C48E7DFF808
:1018200054C060457FF43EAF4FF0050C40E7F1BC7B
:101830007047006901400846401E8041C043C00F08
:101840007047002A01D081617047090481617047A7
:1018500000180240003C0140443802400838014072
:10186000000002400004024000080240000C024058
:10187000001002400014024038B5044601F092F90D
:10188000054614F1010F02D004480078241801F035
:1018900089F9401BA042FAD331BD00BF4C71002032
:1018A00038B5040001D1012032BD0020A06204F14E
:1018B00050056878002804D100202870204600F0E8
:1018C00065F9022068702068016821F0400101601C
:1018D0006168A0680143E0680143206901436069D1
:1018E0000143A06900F400700143E0690143206AEC
:1018F0000143A06A014320680160A169090C01F05D
:101900000401606A0143206841602068C16921F4D4
:101910000061C1610020686001206870002032BD54
:101920002DE9F84380460D4691461C46002708F1F4
:1019300050063078012801D10220C7E00120307024
:1019400001F030F97178012901D00227B9E02900AE
:1019500002D04A46002A01D10127B2E00322727068
:101960003A467260C8F83010A8F83490A8F836905B
:10197000C8F83820A8F83C20A8F83E20C8F8442031
:10198000C8F84020D8F80820B2F5004F05D1D8F8A3
:101990000020136843F480431360D8F800201368D4
:1019A0005B0603D4136843F040031360D8F80420A7
:1019B000D8F80C30B3F5006F2FD1002A03D0B8F857
:1019C0003620012A09D131F8022BD8F80030DA602C
:1019D000B8F83620521EA8F836208946054607E09A
:1019E00039F8021BC160B8F83600401EA8F836006E
:1019F000B8F8360000283FD0D8F800008168890781
:101A0000EED4002C07D014F1010FF1D001F0CAF888
:101A1000401BA042ECD3032753E0002A03D0B8F8C0
:101A20003620012A09D111F8012BD8F800301A7399
:101A3000B8F83620521EA8F836208946054607E039
:101A400019F8011B0173B8F83600401EA8F83600DB
:101A5000B8F8360000280FD0D8F800008168890750
:101A6000EED4002CD7D014F1010FF1D001F09AF888
:101A7000401BA042ECD3CEE7009523460122022171
:101A8000404600F025F80028C5D12A4621464046A8
:101A900000F06AF8002803D001272020706010E0D1
:101AA000D8F80800002808D138460090D8F800007F
:101AB000C16800918068009000987068002800D08C
:101AC000012701207070002030703846BDE8F28395
:101AD0002DE9F04105460E4617461C46DDF81880F4
:101AE000286880683040B04201D1012000E0002029
:101AF000B84236D014F1010FF2D0002C05D001F01D
:101B000051F8A0EB0800A042EAD32868416821F010
:101B1000E00141606868B0F5827F0BD1A868B0F53C
:101B2000004F02D0B0F5806F04D12868016821F021
:101B300040010160A86AB0F5005F0AD129680A680F
:101B40004DF6FF7002400A602868016841F40051B8
:101B5000016005F150000121417000210170032056
:101B600000E00020BDE8F0811CB504460B46009261
:101B700000228021FFF7ACFF002805D0606D40F007
:101B800020006065032016BD002016BD704730B4EC
:101B9000002513E050F8042BD30744BFA9F101033B
:101BA0009A18091F042942F8045BFAD213468C07DD
:101BB00044BF15809B1CC90748BF1D7050F8041B0B
:101BC0000029E7D130BC704762F30F2262F31F4255
:101BD00000B500BF130096469446103928BFA0E810
:101BE0000C50FAD85FEA417C28BF0CC048BF40F8CF
:101BF000042BC90728BF20F8022B48BF00F8012B8F
:101C000000BD0268531C036011707047002804D0A7
:101C1000002240217148FFF714BE00224FF480716A
:101C20006F48FFF70EBE6D4B002804D000228021C4
:101C30001846FFF706BE002210211846FFF701BE26
:101C4000002803D040216548FFF7F3BD4FF48071B1
:101C50006348FFF7EEBD614A002803D0802110469B
:101C6000FFF7E7BD10211046FFF7E3BD01B400996F
:101C70005C4800685C4AB0FBF2F00522B0FBF2F071
:101C8000414300910098411E00910028FAD101B013
:101C9000704700B585B0002808D040200090002093
:101CA000019069464D48FFF7F7FC08E04FF480705B
:101CB00000900020019069464948FFF7EDFC05B00F
:101CC00000BD18B585B004000CD040200090112054
:101CD0000190012002900020039069463F48FFF7E1
:101CE000DBFC0BE04FF4807000901120019000208D
:101CF0000290039069463A48FFF7CEFC2046FFF772
:101D000085FF06B010BD00B585B0344A002808D064
:101D1000802000900020019069461046FFF7BCFC2F
:101D200007E0102000900020019069461046FFF760
:101D3000B3FC05B000BD18B585B0044627482100A6
:101D40000BD08021009111210191012102910021EC
:101D500003916946FFF7A0FC09E0102100911121D1
:101D600001910021029103916946FFF795FC2046FD
:101D7000FFF759FF06B010BD70B50446FFF7A1FF8D
:101D80000120FFF773FF2046FFF7D5FF0120FFF783
:101D90006DFF2046FFF77DFF0120FFF767FF20461C
:101DA000FFF7B1FF0120FFF761FF104D0020287001
:101DB0002046FFF745FF06462046FFF74CFF002E62
:101DC00002D12978491C2970002802D12878401CAA
:101DD00028700420BDE8704048E70000000402407D
:101DE000000002405871002040420F00D87A0020C5
:101DF00010B50446FFF7C0FF2046BDE81040BBE722
:101E000010B50446FFF797FF0120FFF72FFF20468C
:101E1000FFF757FF0120BDE8104027E7F8B504465B
:101E20000D460126002715E0FFF785FF04E0200698
:101E30002846F9D5FFF767FF3046FFF717FF28461A
:101E4000FFF727FF3046FFF711FF2846FFF739FF5E
:101E500064007F1C3846C0B20828E8DB2846FFF73C
:101E600052FF3046FFF702FF2846FFF712FF3046C9
:101E7000FFF7FCFE2846FFF7EEFE002800D0002604
:101E80002846FFF71EFF3046F2BD000080B5032054
:101E900000F08AFF002000F0ABFE00F0A1FF002060
:101EA00002BD10B5002801D1022010BD00F51D743F
:101EB000A369002B01D00023A361002900D0616138
:101EC00001212170027000F0FEFF002010BD0246CB
:101ED0000020002902D0C2F88C12704702207047FF
:101EE00080B501F012F8002002BD0020704710B547
:101EF0000224D0F88C22002A04D0126890470028CF
:101F000000D10024204610BD80B5D0F88C22526844
:101F10009047002002BD38B5044604F520752846D8
:101F200001F015FB04F51B7001210160418B41603C
:101F3000017D11F01F0003D002280BD005D30EE065
:101F40002946204601F0A4F80EE02946204601F07B
:101F5000D0F809E02946204601F0F2F804E001F04B
:101F60008001204601F008F8002032BD38B5044653
:101F7000104604F51B730A0021D11968032927D1E3
:101F800004F5A6714A680D68AA420BD2AA1A0A6023
:101F900049688A4200D30A4692B20146204601F0BF
:101FA00045FB15E0186A0169002904D0187A032856
:101FB00001D120468847204601F040FB08E0186A1E
:101FC0008269002A04D0187A032801D1204690475C
:101FD000002032BD38B50446104604F51B750A00D2
:101FE00043D12968022937D1226A616A91420DD210
:101FF000521A226292B20146204601F0FFFA0023F3
:102000001A461146204600F0E4FF25E0E269B2FBE3
:10201000F1F001FB1020002812D18A4210D3686829
:1020200082420DD200221146204601F0E7FA00203C
:102030006860034602460146204600F0CAFF0BE0F6
:10204000286AC168002904D0287A032801D12046D3
:102050008847204601F0FDFA287B01280ED1204652
:10206000FFF743FF0020287308E0286A4269002A2E
:1020700004D0287A032801D120469047002032BDA1
:1020800010B5044640230022114600F045FF4020D1
:10209000C4F85001034600228021204600F03CFF96
:1020A0004020606204F51D7201201070D069002884
:1020B00005D06168C9B220469269526890470020F5
:1020C00010BD01740020704700F51D70017841704B
:1020D000042101700020704700F51D7041780170E7
:1020E0000020704780B500F51D710A78032A04D1DD
:1020F0008969C969002900D08847002002BD80B5E0
:1021000000F51D721378032B04D19269126A002A1C
:1021100000D09047002002BD80B500F51D721378F5
:10212000032B04D19269526A002A00D09047002004
:1021300002BD0020704780B500F51D7201211170AD
:102140004168C9B2926952689047002002BD000000
:102150000FF2090181650021C165704780B5134602
:10216000032B00D1042291FBF2F189B201F0E0FAD5
:10217000BDE8014001F04ABB10B5044601F001FB87
:10218000002201215E48FFF75CFB5E4804600120ED
:102190005D4908705D49087020464AF6444188420E
:1021A0000AD04BF68031884206D05949884209D07E
:1021B0005849884206D00AE05748016841F4801126
:1021C000016004E05448016821F480110160204658
:1021D000FFF71AF9514840780128204602D100F053
:1021E0000AF804E001F040FA204601F083FABDE865
:1021F000104001F0AEBA10B5044601F0C2FA4148F1
:102200000460012040490870BDE8104001F0A1BA07
:1022100010B504464248047001203B49087001F0A3
:10222000B0FA21463C4801F0C9FA204601F022FBF1
:1022300001F08FFA01203549087010BD0121324AA2
:10224000117001F090BA70B504460D462D48046037
:102250003348057001202C4908702C4908702F4E16
:102260007078012802D101F04DFA02E0204601F019
:10227000FBF901F011FB284601F0CFFA284601F0E6
:102280008AFA70780128204602D1FFF7B4FF01E0F6
:1022900001F030FABDE8704001F05BBA0221017133
:1022A0000321C18041741B4901600121018100218A
:1022B000C16001747047194800787047194A136863
:1022C0009168CB1803605168144A127812EB1141DF
:1022D0000904416070471148012101704170704745
:1022E00018210C48AFE71048016841F480510160A3
:1022F00070470E48016841F080710160704700002E
:102300000000024034000020300000200F000020B8
:10231000885801000077010024580140D47A002039
:102320000E000020107AFF1F14080240000802402F
:1023300038B50546F02001F045FB040001D102202C
:1023400032BD0022F021FFF73FFC05F524756A68D5
:102350001169204612689047002806D0286802F0CC
:102360003BFD00202860022032BD2C60002032BDE1
:10237000F8B50446D4F89052012611E006EB460069
:1023800015EB800797F87500002808D046F080010B
:10239000C9B2204600F0CAFD002087F87500761CFF
:1023A000012EEBDD012611E006EB460015EB800760
:1023B00097F88D00002808D030460146C9B2204663
:1023C00000F0B4FD002087F88D00761C012EEBDDB7
:1023D0000020F2BD2DE9F04704469246D4F8905211
:1023E0005C2010FB01F1681800F1140630790146F9
:1023F0000C27000608D505F1700001F00F0117FB4E
:1024000001F100EB010804E017FB01F1681800F18D
:102410008808504600282FD1B078002823D098F89B
:102420000500002808D0D8F800000178204600F008
:102430007DFD002088F8050006F13C0108780028A1
:1024400011D005F17000097901F00F0117FB01F7B8
:10245000C5196879002806D028680178204600F060
:1024600065FD0020687106F13C02D16900205269C7
:1024700090470020B0707CE0301DC8F8000006F1E5
:102480003C09D9F81C105046D9F81420904786F81A
:1024900002A0D8F80010486B896988470346A8F85D
:1024A00006300122D8F800000178204600F034FD03
:1024B000012088F80500D8F8002002F10C01506BCB
:1024C00052699047D8F800108860D8F80000017869
:1024D0000A0613D5204600F048FDDFF8B80600686C
:1024E000000AC0F30D00A8F80800D8F8000083899E
:1024F00082680178204600F065FD3AE0B8F80630C1
:102500008268204600F065FD99F80000002830D070
:1025100005F1700099F8041001F00F0117FB01F7A5
:10252000C51906F1400028600320E88001202871C9
:10253000EB88024699F80410204600F0EDFC0120DB
:102540006871D9F80C00D9F80810884706F14101E4
:1025500000F012F8DFF83C060068000AC0F30D0036
:102560002881EB8806F1410299F80410204600F01A
:1025700029FD0020BDE8F08740033E307D22B0FBFE
:10258000F2F0024692080A700246920A4A70800CE3
:1025900088700020704770B503460024D3F890522D
:1025A000087810F0600215D0202A72D14A7800F025
:1025B0000300012808D1521E02D0803A032A64D8B1
:1025C000184600F0DFF964E0012A5ED1184600F0F9
:1025D0005DFA5EE04878062804D00A2814D00B285B
:1025E0002AD052E04888000A212852D1CA881046D1
:1025F0000A2800DB0922DFF8A005406800F112017B
:10260000184600F0EDFF44E02246184600E0521C58
:102610006B789A4238DA5C2353438C8805F11406B0
:10262000F65CE4B2B442F2D1012205F1160119447C
:1026300000F0D6FF002070BD204600E0401C8A88D4
:102640006C78A04217DA5C24444305F11406365D29
:10265000D2B2B242F2D14A88114616352C5DC9B2C7
:10266000A14201D1002070BDD2B20146C9B21846C4
:10267000BDE87040AEE6D2B2002A06D14888C0B2AA
:10268000002802D1002070BD0346184600F073FFF9
:102690000224204670BDDFF800150A8802804868D1
:1026A0007047F8B504460D46D4F8900201F07F015A
:1026B00001EB410200EB820000F170067079002806
:1026C00034D03079002818D1326802F10C01506BF7
:1026D0005269904731688860DFF8B8040068000AE2
:1026E000C0F30D00308130688389826845F0800531
:1026F0002946204600F066FC1AE0012818D1376808
:10270000B86879688847791CFFF736FFDFF88404DA
:102710000068000AC0F30D00308103237A1C45F0E5
:1027200080052946204600F04DFC01E0FEF736FA10
:102730000020F2BD2DE9FC410546D5F8904204F198
:10274000EC008178002973D004F1A0063768327953
:10275000012A1ED17A78062A68D1BA680088034611
:102760001B0A012B02D0022B08D05FE05368002B1C
:102770005ED0FA687179C0B2984759E0012955D105
:102780009368002B54D0FA68B4F8A510C0B29847EB
:102790004EE00088000A012848D1012946D107F1FE
:1027A000240EDEF80000002842D000208DF8000042
:1027B000731DDEF8102069469E785878000240EAC2
:1027C00006401B781843DEF800309847002600E0EA
:1027D000761C607886422BDA5C20704304EB00089C
:1027E00008F118008742F3D108F150010878002859
:1027F00006D0C8688968884708F15501FFF7BCFE14
:102800009DF80000002813D098F81640002C0FD037
:10281000002230460146C9B22846FFF7DBFD2246BA
:102820003146C9B22846FFF7D5FD01E0FEF7B6F9FB
:102830000020BDE8F6810020704738B5D0F89042FE
:1028400000250BE05C2068432218907D002804D00E
:10285000116E002901D0D06E88476D1C60788542CA
:10286000F0DB002032BD2DE9F8430546D5F8906233
:102870000127DFF820830DE0FEF790F909E000283A
:10288000FAD12068838982684946C9B2284600F097
:1028900099FB7F1C012F45DC07EB470006EB80000E
:1028A00000F17004D8F80010090AC1F30D01607935
:1028B0000028EED0B9487A0102F47E6282181368CB
:1028C000002BE6D501F001031268C2F300429342E7
:1028D00005D02289921CC2F30A029142D9D147F055
:1028E00080094946C9B2490101F47E614018016876
:1028F00041F0904101604946C9B2284600F035FBDD
:10290000D8F80000000AC0F30D00208120790128CA
:10291000B5D1E3882068421C4946C9B2284600F078
:1029200051FBB6E70020BDE8F283002070477CB57C
:1029300004460D46D4F8900201EB410200EB820000
:1029400000F188067079002818D02946204600F04A
:1029500047FBADF800003268516BBDF8000012690A
:10296000904732686946506B526990470246BDF8FD
:1029700000302946204600F02CFB01E0FEF70EF95E
:10298000002076BDF8B505460E460020D5F8901219
:1029900001F1EC0203469370B3881B0A044600E081
:1029A000641C0F78BC4208DA270101F1040C1CF802
:1029B00007C06345F4D1081D3844002805D0748849
:1029C00023461B0A87881F4205D13146284600F05E
:1029D000D2FD0220F2BD77785FEA076C10D4148034
:1029E00001F1A003186001201871F08898647078D4
:1029F0009070F288A531284600F008FE0020F2BD54
:102A00004278062A3ED18268012B02D0022B14D0D4
:102A100038E0002301F1A004637101F1A5041368FB
:102A2000002B04D0C26821467088C0B298470122AA
:102A30002146284600F0D4FD26E0A5310E46812F20
:102A400006D017D3832F0FD00BD3842F0FD011E0D4
:102A50000026D368002B0FD0C268E4B22046984706
:102A60000AE002F1120607E002F1100604E002F1AA
:102A7000140601E0FEF792F802223146284600F0E3
:102A8000AFFD01E0FEF78AF80020F2BDF8B504467C
:102A90000020D4F890520A79034600E05B1C6E785F
:102AA000B34207DA5C265E432E44377EBA42F5D144
:102AB00006F1180000284ED04A8813461B0A868863
:102AC0001E4248D04E78370613D405F1EC031A8025
:102AD00005F1A002106002201071C8889064487847
:102AE0009870CA8805F1A501204600F08FFD0020EE
:102AF000F2BD012B34D1812E04D02CD3832E1FD0D4
:102B000013D328E000210091026A002A02D0416B11
:102B10006846904705F1A000009941710099090AA3
:102B200081710099090CC1711CE005F1A001C26A14
:102B30004A71C26A120A8A71C06A000CC87111E037
:102B400005F1A001826A4A71826A120A8A71806A5A
:102B5000000CC87106E0204600F00DFD0220F2BD19
:102B6000FEF71CF8032205F1A501204600F038FD10
:102B70000020F2BD0A2101800948704780B50B0092
:102B800006D0C0F8943204491A69081D9B6898471A
:102B9000002002BD08080050C07A00200009005043
:102BA000A471002001484068704700BF4C710020AC
:102BB0000CB430B583B00A4606A90291044600253C
:102BC0000194009502AB01A9084878441E3002F038
:102BD00005F9019A157000284EBF04460198041BA0
:102BE000204603B030BC5DF80CFB00BF17F0FFFFC0
:102BF00018B587B001460022362000F0D6F83620FE
:102C000000F0E2F8002000901A48016841F010013D
:102C10000160006800F010000090009801A902A86F
:102C200003F0C0F80598002802D103F0B0F802E0E4
:102C300003F0ADF84000104C1049216040F2E7313C
:102C4000E1600F49B0FBF1F0401E606000202061A0
:102C5000A060204603F0C8F8002803D1204603F006
:102C6000DCF800E0012008B010BD03F00FBA024804
:102C700003F0DFB840380240107A00200010004016
:102C800040420F0090420CD141EA030C50EA4C0C38
:102C900007D0994205D14FF4001C1CEB410F38BFFF
:102CA000894270474FF4001C1CEB410F94BF1CEB92
:102CB000430F09E041EA030C50EA4C0C52EA0C0CB9
:102CC00003D2994208BF9042704714BF8B428242A0
:102CD0007047000010B504460120FFF791F801216C
:102CE0002420FFF79BF801210846FFF797F80A48D0
:102CF0004078002C05D00121401CC0B2FFF78EF8AF
:102D000004E0012100F0FE00FFF788F80120BDE893
:102D10001040FFF731B80000DC0400202B4A136894
:102D20004FF6FF010B40000200F4E0601843284911
:102D300008431060704725480068C0F302207047C0
:102D4000010008D4012200F01F0002FA00F0214A1D
:102D5000490942F8210070470901020002D41E48C7
:102D6000815470471D4A00F00F00104400F8041C05
:102D7000704710B400F00700C0F10703052B00D323
:102D80000423041D072C01D2002000E0C01E0124F2
:102D900004FA03F35B1E1940814004FA00F0401E60
:102DA0001040084310BC7047B8E770B504460D46A4
:102DB0001646FFF7C0FF32462946FFF7DAFF014605
:102DC0002046BDE87040C7E7BAE700000CED00E020
:102DD0000000FA0500E100E000E400E018ED00E08A
:102DE00070470000010008D4012200F01F0002FA21
:102DF00000F0A14A490942F82100704780B59F4878
:102E0000016841F020710160416A41F42A21416268
:102E1000816841F0707181609948016841F08001DA
:102E20000160002203214320FFF7BFFF4320BDE8DC
:102E30000240D7E700F56F71D0F8F803FFF76BB8E1
:102E40000A46C2EBC20300EB8302D2F80422D0F898
:102E5000F803FFF78BB80A46C2EBC20300EB83020C
:102E6000526CD0F8F803FFF7B5B8D0F8F803FFF7C5
:102E700039B938B504460125E068002800D100259D
:102E8000D4F8F803FFF7FCF82946D4F8F803BDE8B6
:102E90003440FFF716B9D0F8F803FFF715B9D0F8AA
:102EA000F803FFF719B9D0F8F803FFF735B9D0F8F0
:102EB000F803FFF724B9D0F8F803FFF73AB9D0F8D0
:102EC000F803FFF738B980B56E494FF0A0420A60A9
:102ED00005224A6000220A6340224A6100220A61F8
:102EE0000A6202228A610122CA610222CA600022A9
:102EF000CA624A62C1F8F803C0F89812084603F0A3
:102F0000CDF800F071F8002002BD80B5D0F898022D
:102F100003F027F9002002BD10B51C4613462246D7
:102F2000D0F8980203F0B4FB002010BD10B50C4699
:102F3000D0F8980203F0DDFB2146490120060AD5AE
:102F400001F47E6101F1A04101F510610A684E486B
:102F500002400A6007E001F1A04101F530610A6812
:102F60004A4802400A60002010BD80B5D0F898029F
:102F700003F093FC002002BD80B5D0F8980203F066
:102F80002FFC002002BD80B5D0F8980203F05BFC56
:102F9000002002BDD0F898020A4602F07F02C2EB80
:102FA000C20300EB8300090602D590F83A0070478F
:102FB00090F8FA01704780B5D0F8980203F056FBFC
:102FC000002002BD80B5D0F8980203F0E5FB002098
:102FD00002BD80B5D0F8980203F0B0FB002002BD1E
:102FE000D0F8980203F0CEBB3EB500220A21684615
:102FF000FEF7EAFD002003F0C5FCC01C01464910A5
:1030000000EB9170801080B20146ADF800100121F4
:103010000BE06A4632F81130102B02DA102322F846
:10302000113032F811208018491C0129F1DDDD240E
:10303000014689B2DD3140F24112914203D2C0F51E
:10304000A070044601E0FDF7A8FD0E4D214689B2AF
:10305000284603F0EFFC002409E0684630F814200D
:1030600020460146C9B2284603F0BEFC641C012C70
:10307000F3DD00203EBD000000E100E00000024062
:103080003438024014720020007833FC0078FFFFCF
:1030900080B50A7812F0600208D0202A01D0402AB8
:1030A00023D1D0F88C229268904720E04A78092AF0
:1030B0001BD8DFE802F011171A141A08051A0E0BB4
:1030C00000F0F0F813E000F07DF910E000F0A1F955
:1030D0000DE000F0F7F90AE000F00BFA07E000F06D
:1030E0001EFA04E000F024FA01E000F044FA0020A7
:1030F00002BD38B504460D46287810F0600003D0B4
:10310000202801D0402816D104F51D721078401EE9
:10311000022810D8287902280DDA20469269926890
:1031200090470146E888002808D1002906D12046AA
:1031300000F084FA02E0204600F01DFA002032BDC3
:1031400038B5044608790A7812F060030AD0202BBB
:1031500001D0402B7AD1204604F51D729269926805
:10316000904776E002F06002202A07D1204604F55D
:103170001D7292699268BDE8384010474A78002A6B
:103180003AD0012A16D0032A60D194F87422022A78
:1031900017D0032A5AD14A88002A29D1002827D0DB
:1031A000802825D0C988002922D101462046FFF772
:1031B000E3FE1DE094F87422022A02D0032A0DD007
:1031C00044E0002842D0802840D001462046FFF746
:1031D000D3FE80212046FFF7CFFE3AE04988002940
:1031E00037D110F07F0103D001462046FFF7CBFE18
:1031F000204600F023FA2CE094F87422022A02D030
:10320000032A17D022E0002801D080281ED100F028
:103210007F0101EB810204EB8201000601D514312C
:1032200001E001F5A071002008600222204600F0B4
:10323000D7F90EE0142500F00F0215FB02F2A318D7
:1032400010F0800207D09B69002B08D1204600F0C7
:1032500092F9002032BDD3F84431002BF6D000F0B3
:103260007F0115FB01F56119002A02D001F1140557
:1032700001E001F5A075002801D0802802D10020CE
:10328000286008E001462046FFF784FE401E80418A
:10329000C043C00F286002222946204600F0A0F952
:1032A000D7E7000038B504460D4668880146090A8C
:1032B000491E062900F28180DFE801F00426377FED
:1032C0007F6973006946207CD4F888221268904791
:1032D000BDF80010002910D0E98800290DD0BDF8F4
:1032E0000010EA88914200D91146ADF80010BDF8EF
:1032F00000200146204600F073F9E888002802D13A
:10330000204600F09BF931BD04F522704168207C15
:103310000028684604D1896A884702214170D7E7AE
:10332000C96A884702214170D2E7C0B2052844D853
:10333000DFE800F0030A11181F266946207CD4F844
:10334000882252689047C3E76946207CD4F88822D7
:1033500092689047BCE76946207CD4F88822D268FE
:103360009047B5E76946207CD4F8882212699047D7
:10337000AEE76946207CD4F8882252699047A7E7D7
:103380006946207CD4F8882292699047A0E7207C87
:10339000002812D1684604F522714968496B8847B4
:1033A00096E7207C002808D1684604F52271496818
:1033B000096B8847072141708AE72946204600F0BB
:1033C000DAF831BD70B50446888800281DD1C88858
:1033D00000281AD14D882846802816D205F07F058E
:1033E00004F51D76307803280FD0B57029462046A5
:1033F000FFF7E1FD204600F021F9002D02D0022068
:10340000307070BD0120307070BD2046BDE8704046
:10341000B1E070B504460D46294E688830703178A9
:103420000846022804DB29462046BDE87040A2E099
:1034300094F87402022802D0032811D035E0002944
:1034400009D008466060032084F874022046FEF725
:103450004EFD022824D02046BDE8704000F0EEB8B2
:1034600000290DD1022084F874020020606001461A
:103470002046FEF749FD2046BDE8704000F0DEB86A
:1034800060688142E7D00146C9B22046FEF73CFDA4
:103490003178084660602046FEF729FD0228DAD11F
:1034A00029462046BDE8704065E02946204600F0E8
:1034B00062F831782046BDE87040FEF725BD000077
:1034C000D97A0020CA88012A12D190F87422521E9B
:1034D000012A02D9921E07D00AE000218160012250
:1034E00000F1080100F07CB80122011D00F078B85D
:1034F00041E000F51D7213785B1E022B0ED8CB88BD
:10350000022B0BD10021C1609168002901D002215A
:10351000C160022200F10C0100F062B82BE0498882
:10352000012904D10121C0F87C1200F087B870474E
:1035300000F51D7213785B1E022B06D849880129FD
:1035400004D10021916000F079B814E070470A7846
:1035500002704A7842708A78CB7812EB032242805C
:103560000A794B7912EB032282808A79C97912EBAE
:103570000121C180704710B504468021FFF7FCFC93
:1035800000212046BDE81040FFF7F6BC70B50446A8
:103590000D461646002C18D000F018F84000801C8C
:1035A0003080307828700320687002210AE014F817
:1035B000010B0A46D2B2A854491C00200A46D2B2D6
:1035C000A854491C20780028F1D170BD0246002083
:1035D00001E0401C521C11780029FAD1C0B270479A
:1035E00080B513460222C0F86C221A46C2610262FC
:1035F0000A460021FFF7E6FC002002BD80B5134615
:103600000A460021FFF7DEFC002002BD10B513467C
:103610000322C0F86C2200F5A4721C4614605460AA
:103620000A460021FFF7D5FC002010BD80B51346E7
:103630000A460021FFF7CDFC002002BD80B5042121
:10364000C0F86C1200231A461146FFF7BBFC00209D
:1036500002BD80B50521C0F86C1200231A46114640
:10366000FFF7B7FC002002BDA0490A6822F0805293
:103670000A600A689200FCD44AF6444290420AD09A
:103680004BF6803290420ED0994A904213D0994A1C
:10369000904218D01FE09848984A0260426842F46D
:1036A000905242601EE09448954A0260426822F4BB
:1036B000F852426016E09048904A0260426842F434
:1036C000905242600EE08C488D4A0260426822F4BB
:1036D000F852426006E08848894A0260426822F453
:1036E000F8524260086840F0805008600868800026
:1036F000FCD570478348016821F4700101600168BE
:10370000016070478048016841F400210160416A0E
:1037100041F0500141627D48016841F4401101606F
:1037200070477B48008870477A48006880B27047CD
:1037300010B50C4622460146774800F003F874485D
:10374000048010BD4260C160016841F00101016068
:1037500070476C48FFE7016841F4803101600168FF
:10376000C903FCD5704701466648FFE70029416858
:1037700003D041F020014160704721F020014160F9
:1037800070476048FFE7016821F4803101600168FB
:10379000C903FCD4704738B504466048016841F459
:1037A0008001016001684902FCD5564D2846FFF7AB
:1037B000EAFF21462846BDE83440FFE70122426087
:1037C0004FF4A0228260026822F0E0020260102919
:1037D0000BD1826840F61F710A438260016841F094
:1037E000800101604E49C1600BE0816841F4F851ED
:1037F00041F03F018160016841F0E0010160494909
:10380000C160016841F40051016070473D48FFE725
:10381000016841F400310160704710B5014642482B
:10382000026842F48002026002685202FCD53A4CFF
:10383000204600F010F8206840F0100020603B485F
:10384000A060002202214420FFF7AFFA4420BDE827
:103850001040FFF7B9BA364A02601029016803D157
:1038600041F42051016002E041F4A04101600721D0
:103870004161704701462848FFE7026822F4F042A0
:1038800002601029016803D141F4205101607047A2
:1038900041F4A041016070471B48016841F00201FA
:1038A0000160016A41F006010162816841F0030193
:1038B00081602048016841F002710160416A41F471
:1038C000C02141F060014162816841F04371816033
:1038D0001948016841F400210160416A41F060012A
:1038E0004162816841F440218160704700380240A4
:1038F000885801000077010088380240486B0002B8
:103900000856000724580140000802408C38024045
:10391000D67A00208C640240886402404438024019
:10392000400103008001030030380240405801404C
:1039300040040200000402400000024000F5E07074
:103940000268914203D343681A44914202D38068CB
:103950000028F5D170471849086880B94FF48050A5
:1039600048604FF480324FF0FF30C8600861042097
:10397000124B8A604861C3F8BC01114808600120FD
:10398000704701F1080313F0070F0EBF0023C3F1C6
:10399000080303F007031944D21A8161C26042F0A0
:1039A00001034B60091D4FF0280C41F802C0024A88
:1039B0001369C36170470000A07A002010760020D0
:1039C0006859883C2DE9F84F84B00646AFF3008073
:1039D000F52E1E4D80F00F820B2E31BF10260B36B8
:1039E000F608F6002868F408E04010F0030F4AD00B
:1039F000C04300F00100041905F1280000EBC408E1
:103A0000E700D8F808607068C008C000B84218BF66
:103A100003F028F8D6F80890464508BF03F022F8CE
:103A20004E4508BF03F01EF87068C008C000B842D9
:103A300018BF03F017F8C8450AD12868012101FA18
:103A400004F420EA04042C6010E000BF107600208B
:103A50002869814508D3D9F80C10B14204D1C8F8BF
:103A60000890C9F80C8001E002F0FCFF47F0030069
:103A7000311D7060301DCA5942F00102C25106F179
:103A8000080800F010BFA968B14280F09F830028A9
:103A900000F0A2804FF0010808FA04F1490000FA92
:103AA00004F4484201430C4060420440641E200B71
:103AB00000F01000C440610901F00801CC40A208E8
:103AC00002F00402D440630803F002030818DC404B
:103AD0001018C4F3400718183818FC40241805F1D2
:103AE000280000EBC40AE700DAF80890D9F80400CF
:103AF000C008C000B84218BF02F0B4FFD9F808B03F
:103B0000D14508BF02F0AEFFD94508BF02F0AAFFB9
:103B1000D9F80400C008C000B84218BF02F0A2FFE4
:103B2000DA4506D1286808FA04F420EA04042C6077
:103B30000DE029698B4508D3DBF80C00484504D11A
:103B4000CAF808B0CBF80CA001E002F08BFFBF1B55
:103B500046F0030009F10402C9F8040047F001012E
:103B6000915109EB06020192D751AC684FEAD40A91
:103B7000BAF11F0F88BF02F075FF34B3CDF800A073
:103B800005F128006E6900EBCA0AD346102C38BF35
:103B900002F068FF2968009821FA00F2D30704D4E4
:103BA00008FA00F00843286007E0DAF808002969FD
:103BB00088422CBF834602F055FFCAF80860CBF854
:103BC0000C60C6F808B0C6F80CA0AF6009F1080890
:103BD0000198686100F067BE6868002800F01783EC
:103BE00041420840401E010B01F01001C84042094B
:103BF00002F00802D040830803F00403D8404408D0
:103C000004F002045118E0405918C0F3400761184D
:103C100005F598787918F840401858F82010486849
:103C2000C008C0008A46A0EB060B08E001464868C1
:103C3000C008C000801B58453CBF83468A460869BF
:103C40000028F3D149690029F1D128698245C0F0E3
:103C5000CF80DAF80410C90806EB0B09C900494502
:103C600018BF02F0FFFE0AEB06008245019080F0CB
:103C7000BF80DAF80C40DAF8187054450DD0DAF845
:103C800008002969884223D3C268524504BFA1684D
:103C900051451DD1C460A0601CE00AF114010C68FC
:103CA00034B90AF110010C68A4B101E011460C68A6
:103CB00004F114021068002802BF04F11002106819
:103CC0000028F3D12869814202D300220A6001E072
:103CD00002F0C8FE002F34D0DAF81C0008EB800098
:103CE00001688A4509D1046094B9DAF81C00696852
:103CF000012282409143696023E02869874205D30D
:103D00003969514514BF7C613C6101E002F0AAFEB3
:103D1000BCB129698C4212D3A761DAF8100028B12E
:103D2000884226BF2061846102F09CFEDAF814000C
:103D300038B12969884202D36061846101E002F0F0
:103D400091FEBBF1100F0ED249F003000AF10401FD
:103D5000CAF804000AF1040051F8092042F00102F7
:103D600040F809203EE046F003010AF10402CAF8D7
:103D700004104BF001009051019941F80BB0A86874
:103D80000090C4081F2C88BF02F06CFE009828B376
:103D900005F1280000996F6900EBC408C14610299D
:103DA00038BF02F05FFE286820FA04F1CA0705D484
:103DB000012101FA04F404432C6007E0D8F808005C
:103DC000296988422CBF814602F04CFEC8F8087071
:103DD000C9F80C70C7F80890C7F80C80C5F808B08F
:103DE000019868611AF1080800F0F08100F05BBDED
:103DF00002F038FEEAE116F1400F28BF4FF0FF361F
:103E000080F0E4810B36F6086B68F600002B00F0BA
:103E1000DD810027300AC6F1000908BF002423D045
:103E2000B0F5803F28BF1F241ED2A0F58071090C79
:103E300001F008018840A0F58052120C02F0040243
:103E40009040A0F58044240CC1F10E0104F002045E
:103E5000891A091BA04001EBD031C81D26FA00F4D5
:103E600004F0010404EB410405F5987858F82400A7
:103E700030B31F2C0FBFB4464FEA540CCCF1190CD1
:103E800006FA0CFCBE46494601E04FEA4C0C42687B
:103E9000D208D200921B8A4202D2110007460CD0EF
:103EA000426910304FEADC7950F82900002A1CBF23
:103EB000824296460028E8D170468946A8BBB7BB27
:103EC000012101FA04F4640060420443234000F03D
:103ED0007D81584203405B1E180B00F01000C34068
:103EE000590901F00801CB409A0802F00402D340BE
:103EF0005C0804F002040818E3401018C3F3400CF7
:103F00002018604423FA0CF31B1858F823000CE027
:103F100008464168C908C900891B49453CBF894614
:103F2000074601690029F3D140690028F1D1002F2B
:103F300000F04C81A868801B814580F04781296989
:103F40008F42FFF455AF7868C008C00006EB090146
:103F5000884218BF02F086FD07EB060B5F45BFF4F1
:103F600047AFFC68D7F818A0BC420CD0B8682969E4
:103F7000884223D3C268BA4204BFA168B9421DD1A6
:103F8000C460A0601CE007F114010C6834B907F1AB
:103F900010010C68A4B101E011460C6804F1140290
:103FA0001068002802BF04F1100210680028F3D145
:103FB0002869814202D300220A6001E002F052FD2A
:103FC000BAF1000F34D0F86908EB800001688F4225
:103FD00008D10460A4B9F86969680122824091435C
:103FE000696025E02869824508D3DAF81010B942E3
:103FF00014BFCAF81440CAF8104001E002F032FDC4
:10400000B4B129698C4211D3C4F818A0386928B119
:10401000884226BF2061846102F024FD786938B1AE
:104020002969884202D36061846101E002F01AFDCF
:10403000B9F1100F0CD2B14449F00300391D78607A
:10404000381D51F8092042F0010240F80920B9E07A
:1040500046F003013A1D796049F0010090514FEAA2
:10406000D9004BF809901F2822D805F1280101EB4F
:10407000C004296821FA00F2D307A04605D4012222
:1040800002FA00F00843286006E0A0682969884227
:104090002CBF804602F0E6FCC4F808B007F1080027
:1040A000C8F80CB040F8068007F10C018C5189E08B
:1040B0005FEA192008BF002123D0B0F5803F28BF58
:1040C0001F211ED2A0F58072120C02F0080290404F
:1040D000A0F58051090C01F004018840A0F580434F
:1040E0001B0CC2F10E0203F00203521AD21A9840BE
:1040F00002EBD032D01D29FA00F101F0010101EBF1
:10410000420107F11403CBF81C1000229A5107F169
:10411000100308EB81009A516A6822FA01F3DC0768
:1041200011D4012303FA01F111436960C0F800B012
:10413000CBF8180007F1080107F10C0040F806B0B1
:1041400041F806B03EE002681F291DBF4908C1F1D1
:10415000190109FA01F1494600E002465068C00819
:10416000C000484518D002F11003C80F03EB8003CC
:10417000490018680028F0D12869834220D3C3F889
:1041800000B007F10C01CBF8182041F806B007F198
:10419000080040F806B015E0296990688A4228BFF7
:1041A00088420DD3C0F80CB007F10801C2F808B07E
:1041B000885107F10C0082510022CBF8182001E051
:1041C00002F050FC17F1080840F06D83A868B04277
:1041D0001DD3811B6A6910290AD390196861A960EF
:1041E00041F001034360415046F0030656600BE086
:1041F0000021A9606961131D40F003015160111D88
:104200001C5844F001040C5002F108084BE3E86824
:104210008642C0F03883DFF8B89BD9F8000008B9AF
:10422000FFF799FBD9F8081088192F30491E20EAAA
:1042300001018E4280F0358305F5D877B86838B132
:104240003A6889188A4280F02C838842C0F029831A
:1042500002F00CFC00281CBFD0F8008010F1010F08
:1042600000F01F8339687A68414439608A4238BF58
:104270007960AC6904BB296909B1884200D2286120
:1042800000213861C7F81480F9614FF0FF31D9F887
:1042900000206A62296205F128020021D260926042
:1042A00002F1080454611461891C10321F29F5D9E8
:1042B000A8F1280201461DE005F5E0710A46814695
:1042C00000E09268D2B11068536803449945F8D170
:1042D000107B030712D413689C420FD3D2F804C09A
:1042E00063449C420AD2C444C2F804C02146E86830
:1042F00008EB00022846FFF744FBC1E2286981452C
:1043000038BFC5F8109009EB080000E08968002963
:1043100000F0BD810A688242F8D1087B020700F1F3
:10432000B6810868C1F800904A6842444A6009F1C1
:10433000080111F0070F08BFCDF8049006D0C1F1B5
:10434000080101F0070109EB0102019200F10801E7
:1043500011F0070F04D0C1F1080101F00701084472
:1043600080460198A8EB00018419A1EB060B2746B3
:1043700046F003064660474528BF02F073FB98F8F5
:104380000400C10758BF02F06DFBBBF1100F38BF2E
:1043900002F068FBA869804508D1E9688B44C5F83C
:1043A0000CB0AF614BF0010078606CE1686980454A
:1043B0000AD1A9688B44C5F808B06F614BF00100C1
:1043C000786047F80BB05EE1D8F8040000F0030114
:1043D000012940F0B880C008C000C1081F2903901F
:1043E00040D8D8F808200092D8F80C600291B04567
:1043F00008BF02F037FB0098804508BF02F032FB8F
:10440000D8F804000299C008C000B0EBC10F18BF73
:1044100002F028FB0299009A05F1280000EBC10088
:10442000824208D011462A699142C0F08780CA684A
:10443000424540F0838000998E4206D102982A6856
:10444000012383409A432A607AE0864205D0296995
:104450008E4273D3B068404570D10098C660009911
:10446000B1606DE0D8F818000090D8F80C604645AF
:104470000DD0D8F808002969884223D3C268424584
:1044800004BFB16841451DD1C660B0601CE008F1B1
:1044900014010E6836B908F110010E68A6B101E0EA
:1044A00011460E6806F114021068002802BF06F1DA
:1044B000100210680028F3D12869814202D300223B
:1044C0000A6001E002F0CEFA0098002838D0D8F84F
:1044D0001C0005F5987101EB80000168884509D141
:1044E00006609EB9D8F81C00696801228240914399
:1044F000696025E000982969884205D30169414532
:1045000014BF4661066101E002F0ACFAC6B1296948
:104510008E4213D30098B061D8F8100028B18842B9
:1045200026BF3061866102F09DFAD8F8140038B1D8
:104530002969884202D37061866101E002F092FA33
:10454000039988448B44D8F8041049084900C8F8F6
:1045500004104BF0010078604FEADB0647F80BB01F
:104560001F2E22D805F1280000EBC604A146BBF19E
:10457000100F38BF02F076FA286820FA06F1CA0751
:1045800005D4012101FA06F606432E6006E0A06874
:10459000296988422CBF814602F064FAA760C9F8F5
:1045A0000C70C7F80890FC606DE05FEA1B2008BF44
:1045B000002123D0B0F5803F28BF1F211ED2A0F5D7
:1045C0008072120C02F008029040A0F58051090C94
:1045D00001F004018840A0F580431B0CC2F10E02DB
:1045E00003F00203521AD21A984002EBD032D01DC7
:1045F0002BFA00F101F0010101EB4201F961002306
:1046000005F598727B6102EB81003B616A6822FAD2
:1046100001F3DE0707D4012303FA01F111436960B6
:104620000760B8611DE002681F291DBF4908C1F17C
:1046300019010BFA01F1594600E002465068C00822
:10464000C000584510D002F11003C80F03EB8003DF
:10465000490018680028F0D12869834211D31F60EF
:10466000BA61FF60BC600EE0296990688A4228BF89
:10467000884206D3C7609460B860FA600020B861D1
:1046800001E002F0EFF9019800F108080BE1214682
:104690002846FFF753F90168406808440090A0F1EC
:1046A000270111F0070000980EBF0021C1F1080199
:1046B00001F007010844A0F12F0B04F110018B4514
:1046C00038BFA3460BF11802002102920191A8F114
:1046D000280249462846FFF754F90BF1080010F06C
:1046E000070F18BF02F0BEF91B20CBF8040005F538
:1046F000E07292E809500BF1080181E809500021AD
:104700000BF10800F961B861009A02980199C7F8A5
:104710001090C7F81480072300E0001D491C00F129
:10472000080797424360F8D30129D8BF02F09AF9ED
:10473000A34500F0A580ABEB040B201D221D50F813
:104740000B104908490042F80B104BF00100606063
:104750004FEADB0944F80BB0B9F11F0F22D805F17D
:10476000280000EBC907B846BBF1100F38BF02F0B4
:1047700079F9286820FA09F1CA0705D4012101FA5C
:1047800009F10843286006E0B868296988422CBF0F
:10479000804602F067F9BC60C8F80C40C4F8088095
:1047A000E7606DE05FEA1B2008BF002123D0B0F571
:1047B000803F28BF1F211ED2A0F58072120C02F08C
:1047C00008029040A0F58051090C01F004018840D6
:1047D000A0F580431B0CC2F10E0203F00203521A33
:1047E000D21A984002EBD032D01D2BFA00F101F022
:1047F000010101EB420105F59872002302EB8100F3
:10480000E161636123616A6822FA01F3DF0707D47B
:10481000012303FA01F1114369600460A0611DE006
:1048200002681F291DBF4908C1F119010BFA01F1E6
:10483000594600E002465068C008C000584510D0F4
:1048400002F11003C80F03EB800349001868002829
:10485000F0D12869834211D31C60A261E460A46096
:104860000EE0296990688A4228BF884206D3C46056
:104870009460A060E2600020A06101E002F0F2F824
:10488000E86886420DD2801BA969E8608A19AA618E
:1048900040F00100506046F003064E6001F1080848
:1048A00001E04FF00008AFF30080404605B0BDE8DE
:1048B000F08F002800D170472DE9F047A0F10805DE
:1048C000AFF30080DFF80C6531698D42C0F07A8269
:1048D000686800F00302012A00F07482C2084FEAFF
:1048E000C209C20705EB090839D42C6810F0030F80
:1048F00000F06A82604205448D42A144C0F06282A9
:104900007069854200F0DA80E408202C72D2D5F874
:104910000CA0AF68554508BF02F0A4F8BD4208BF1F
:1049200002F0A0F86868C008C000B0EBC40F18BF60
:1049300002F098F806F1280000EBC400874205D089
:1049400031698F4253D3FA68AA4250D1BA4540D157
:104950003068012101FA04F420EA0404346045457A
:1049600080F03082D8F80440E00740F12B82A107A4
:1049700000F17C81B069804540F0B380F168B56199
:104980008944C6F80C9049F00100686071698D4255
:1049900002D100207061B060F169494580F0148255
:1049A000DFF82C24106808B9FEF7D5FFB16900299B
:1049B00000F00A82F068292824BF3046FEF7BEFFC7
:1049C000F069F168884280F0FF814FF0FF30F061BC
:1049D000FAE1824506D03069824508D3DAF808103A
:1049E000A94204D1C7F80CA0CAF80870B7E702F0D2
:1049F00039F8B4E7EC68AF69AC420BD0A8688842DC
:104A000022D3C168A94204BFA268AA421CD1C460D3
:104A1000A0601BE005F11402146834B905F110021E
:104A200014689CB101E01A46146804F11403186874
:104A3000002802BF04F1100318680028F3D18A424D
:104A400002D30021116001E002F00CF8002F86D0A3
:104A5000E96906F5987000EB81000268954209D17A
:104A60000460200011D1E8697168012282409143FD
:104A7000716074E73069874205D33969A94214BF70
:104A80007C613C6101E001F0EDFF002C3FF467AF79
:104A900031698C42ABD3A761286928B1884226BF0F
:104AA0002061846101F0DEFF686900283FF457AFA0
:104AB000316988429BD36061846150E798F80400B3
:104AC00000F0030003287FF44AAFC6F8089049F0CD
:104AD0000101D8F8040040084000C8F804006960EB
:104AE0000AE0706980450AD1B16875618944C6F8E9
:104AF000089049F00100686045F8099064E1E40815
:104B0000E400A144E408202C3AD2D8F80CA0D8F84C
:104B10000870D04508BF01F0A5FFB84508BF01F0F7
:104B2000A1FFD8F80400C008C000B0EBC40F18BF44
:104B300001F098FF06F1280000EBC400874207D07F
:104B400031698F42C0F08580FA68424540F081802B
:104B5000BA4507D13068012101FA04F420EA0404BF
:104B6000346078E0824506D03069824571D3DAF846
:104B7000081041456DD1C7F80CA0CAF808706AE06A
:104B8000D8F80C40D8F8187044450DD0D8F8080073
:104B90003169884223D3C268424504BFA1684145B8
:104BA0001DD1C460A0601CE008F114010C6834B988
:104BB00008F110010C68A4B101E011460C6804F181
:104BC00014021068002802BF04F1100210680028C7
:104BD000F3D13069814202D300220A6001E001F082
:104BE00041FF002F37D0D8F81C1006F5987000EB65
:104BF0008100026890450AD10460200012D1D8F8E3
:104C00001C007168012282409143716023E0306989
:104C1000874205D33969414514BF7C613C6101E09D
:104C200001F020FFBCB131698C4212D3A761D8F8E2
:104C3000100028B1884226BF2061846101F012FF74
:104C4000D8F8140038B13169884202D360618461B8
:104C500001E001F007FF49F00100686045F80990A4
:104C600071698D420BD1C6F80890ADE0640864000C
:104C7000C8F8044049F00100686045F809904FEA1F
:104C8000D907202F22D206F1280000EBC704A04646
:104C9000B9F1100F38BF01F0E5FE306820FA07F1D6
:104CA000CA0705D4012101FA07F70743376006E078
:104CB000A068316988422CBF804601F0D3FEA56010
:104CC000C8F80C50C5F80880EC607DE05FEA192058
:104CD00008BF002123D0B0F5803F28BF1F211ED27E
:104CE000A0F58072120C02F008029040A0F58051ED
:104CF000090C01F004018840A0F580431B0CC2F1AF
:104D00000E0203F00203521AD21A984002EBD0327C
:104D1000D01D29FA00F101F0010101EB420106F575
:104D20009872002302EB8100E9616B612B6172686C
:104D300022FA01F3DC0707D4012303FA01F111433E
:104D400071600560A8611DE002681F291DBF490848
:104D5000C1F1190109FA01F1494600E00246506823
:104D6000C008C000484510D002F11003C80F03EB83
:104D70008003490018680028F0D13069834211D3BC
:104D80001D60AA61ED60AD600EE0316990688A42F5
:104D900028BF884206D3C5609560A860EA600020FD
:104DA000A86101E001F05EFE306A401E30620BD166
:104DB000D6F8C80100E080680028FCD14FF0FF3031
:104DC000306201E001F04EFEAFF30080BDE8F087F5
:104DD000A07A002010760020FFF76BBD2DE9F14F7F
:104DE000B0B0924604910DF142013A9A2B91994646
:104DF0004A7000200AE01AF8011B0498309A904784
:104E00000028049000F0A8860D98401C0D909AF898
:104E1000000050B12528EED1002100220791089210
:104E200009910A920B910C9204E00D9800F096BE45
:104E300041F001011AF8010F2028F9D023280CD0E5
:104E40002B2804D02D2805D0302809D00BE041F0C4
:104E50000201EFE741F00401ECE741F00801E9E766
:104E600041F01001E6E72A280FD1D9F8002052F8C6
:104E7000040BC9F8002000280F9003D540420F9082
:104E800041F004010AF1010A14E00F92DFF828381A
:104E90000AE00F98984205DA00EB800402EB440226
:104EA000303A0F920AF1010A9AF80020A2F130007C
:104EB0000A28EED39AF800002E2803D04FF0FF32D4
:104EC0000E9229E01AF8010F2A2809D1D9F800001A
:104ED00050F8042BC9F800000E920AF1010A1BE0F9
:104EE0002D280CBF0AF1010A002000220E92DFF8E3
:104EF000C8470BE040B90E9AA24205DA02EB8205E0
:104F000003EB4503303B0E930AF1010A9AF8003097
:104F1000A3F130020A2AEDD3ADF84010DFF89C0768
:104F2000784400F5F3609AF8001001F0B5FD08B17F
:104F30001AF8010B8DF842009DF84200682805D14F
:104F40009AF8000068280CD1622106E06C2804BFA2
:104F50009AF800006C2804D171218DF842100AF1F2
:104F6000010A12A806901AF801BBBBF125012CD04A
:104F70001C3900F0D081091F022940F2CC8113397D
:104F800000F01585093900F0C681891E00F0AA8558
:104F9000491E00F05785491E022940F2BC81091FB5
:104FA00000F05085491F00F02881491E00F0FF8461
:104FB000491E00F0D080C91E0DD0891E00F0F78474
:104FC000C91E00F0F48400F098BD25238DF8483008
:104FD000012100F09DBDD9F8000050F8044BC9F83C
:104FE0000000002C059440F0A3802B9948780028FD
:104FF00000F099804FF0FF340FF6683001F058FD53
:10500000201A40F0A98500F084BD6D1E40F09B85FC
:105010003096079D12AF75B1309E17F8012B02A98B
:10502000304600F065FE002801D46D1EF5D1002841
:10503000309640F091850A9D3020002D8DF80400B7
:105040000CDD309E012301AA02A9304600F060FE6B
:10505000002840F081856D1EF4D13096059F089D93
:1050600075B1309E17F8012B02A9304600F040FEC2
:10507000002801D46D1EF5D10028309640F06C85D3
:105080000B9D3020002D8DF804000CDD309E012397
:1050900001AA02A9304600F03BFE002840F05C85E2
:1050A0006D1EF4D1309605980899099D471875B181
:1050B000309E17F8012B02A9304600F019FE002897
:1050C00001D46D1EF5D10028309640F045850C9D29
:1050D0003020002D8DF804000CDD309E012301AA44
:1050E00002A9304600F014FE002840F035856D1E00
:1050F000F4D130969DF8400041077FF588AE20201E
:10510000002C8DF804007FF782AE309D012301AAA8
:1051100002A9284600F0FCFD002840F01D85641E11
:10512000F4D1309573E60FF64840059000F0F1BCDD
:105130000E9D002D04D5204601F0DAFC044607E060
:105140002A46204601F0F0FC002814BF041B2C4620
:10515000089400F0DEBCD9F8001051F8040BC9F82F
:10516000001020F00004002121F0FF3512ABCDE942
:1051700002450593DDE9022306993C2413B90AB9D7
:105180000E9898B102F00F053035641EEEB23A2E3B
:10519000A8BF2735120942EA03721B090D5508BF43
:1051A000002A03D005980D19A842EBD308190590E1
:1051B000C4F13C020E98089282420ADABDF840100F
:1051C000821A4FF6EF7001400A92ADF8401000F0DD
:1051D000A0BC002840F19D849DF8400000F0140020
:1051E000102840F096840F9B07990A985B1A1B1AA7
:1051F0009A1A002A40F38D84D7E32B99487820B17E
:105200004FF0FF340FF63830F8E69DF84200622880
:1052100061D0682817D06A283FD06C2806D0712842
:1052200047D074282CD07A281DD064E0D9F800101B
:1052300051F8040BC9F80010002868D14FF0FF3472
:105240000FF61430DAE6D9F8001051F8040BC9F85B
:10525000001020B94FF0FF340FF6FC20CEE60D9978
:10526000018000F056BCD9F8001051F8040BC9F8C1
:10527000001000284BD14FF0FF340FF6DC20BDE6C4
:10528000D9F8001051F8040BC9F8001000283ED1DD
:105290004FF0FF340FF6C020B0E6D9F8001051F8F7
:1052A000040BC9F8001080B94FF0FF340FF6A820A6
:1052B000A4E6D9F8001051F8040BC9F8001020B981
:1052C0004FF0FF340FF6902098E60D9AD317C0E9FF
:1052D000002300F01EBCD9F8001051F8040BC9F8E7
:1052E000001020B94FF0FF340FF66C2086E60D99C0
:1052F000017000F00EBCD9F8001051F8040BC9F889
:10530000001020B94FF0FF340FF64C2076E60D99CF
:10531000016000F0FEBBD9F80020D21D22F0070288
:10532000C9F80020D2E900010832C9F80020CDE90F
:105330000201C80F02D007982D210AE0BDF84000F5
:10534000810702D507982B2103E0C00705D50798F0
:10535000202112AA1154401C0790DDE9022307996D
:1053600012A8CDE92C2308444BF0200161290590B7
:1053700021AC0BD00E99002902D506210E9105E033
:1053800001BF4BF02001672901220E92DDE90223C3
:1053900059004915491C0DD11A030BD0ABF1610519
:1053A00003211A2D089102D20FF6C81110E00FF652
:1053B000C8110DE059004915491C0DD11A030BD134
:1053C000ABF1610503211A2D089119D30FF6B01125
:1053D000032201F0D5FB9CE3DDE90201CDE92E01BA
:1053E000DDE92E2323F00047B7F5801F22F00006E9
:1053F0000DD20022002F08BF002E009203D116E02C
:105400000FF67811E4E76A4601F00EFC0FE0DFF8D2
:10541000C008DFF8C01800EB17500090DDE92E231C
:105420004FF0FF301940DFF8B07810403943CDE934
:1054300002014BF0200061280DD105983021017048
:10544000821CBBF1610F05920CBF7821582141707D
:105450000798801C0790DDE9020120F0000231F07E
:10546000004308BF002A02D10026002568E14BF066
:105470002008B8F1610F40F0B4800E98002847BFB3
:1054800021210191401C0190019FDDE92C017F1C2D
:1054900000220023DDE90245FDF704FC00998DF8A8
:1054A000842038BF85F00045091F002F00910DF1C1
:1054B000850653DD204629460022002301F0ECFB3F
:1054C0004CD24800400D00F11C0212D0002A10DD21
:1054D00040F2FF739A4206DBDFF8001805F0004047
:1054E0000143002011E06FF31E5141EA02512046B2
:1054F0000BE024F0000035F0004108BF00280FBF8A
:1055000029461C22294601F0DFFB04460D4601F026
:1055100079FCFF1F002F804609DD01F091FC024657
:105520000B462046294601F09DFC04460D46F01D21
:105530000721B8F1000F0CDD491E5EBF08F00F0215
:1055400000F8012D4FEA2818F3D502E0002200F8F8
:10555000012D491EFAD5C61D002FABDC0DF18500CB
:10556000361A01988642D8BF304600280DF18504CE
:1055700030D4B04206DA0DF185010A5C082AA8BFD2
:105580000F2100DA0021024621AB134400E0401E47
:1055900013F80159521E8D42F9D00F2904D10DF193
:1055A00085018B5C5B1C8B54002A04D50099091D76
:1055B00021AC401C0091411E0CD46218ABF13A069C
:1055C00013783033DDB23A2DA8BFF318491E02F824
:1055D0000139F5D50E99002940F1B080421E0E9296
:1055E000ACE00099DFF8F82647F29750414391FB71
:1055F000F2F2DDE92C45009225F00045D2F10702D8
:1056000004DD2046294600F040FB0BE0524200201A
:10561000DFF8D01600F039FB02460B46204629463B
:1056200001F092FC0446B8F1660F0E9806BF009F89
:105630000A3706273F18142FC8BF142730200D46FD
:105640008DF884000DF18506002F39DD20462946AE
:1056500001F09EFD01460A4606F1080304200A26D1
:10566000B2FBF6F606EB860EA2EB4E02303203F8E2
:10567000012C0A22B6FBF2F202EB820EA6EB4E06DA
:105680003036401E03F8026DE9D1083F002F03F1C8
:105690000806D9DD084601F08FFD02460B4620467C
:1056A000294601F0DFFB0022DFF83C3601F092FDD5
:1056B00004460D46CAE700BFCBCCCC0C744A0000B0
:1056C0000DF18500361A0DF1850404E00098401EA6
:1056D000761E0090641C20783028F7D0B8F1660F51
:1056E00002D10099491C04E0B8F1650F0CBF0121FB
:1056F00000210E9808188642B8BF701E00281DD4DD
:10570000B04204DA215C3429C8BF392100DC3021E1
:105710000246631E9D1800E0401E15F80169521EE6
:105720008E42F9D0392902D1A15C491CA154002A2A
:1057300004D50099491C1C46401C00910646009D5A
:105740000E9F30B2002802DC01260FF238644BF0C5
:105750002000662808BF6D1C15D067280FFA85F851
:1057600041D118F1040F44DBB84542DA9DF84000FE
:105770006D1C010703D430B2B842B8BF074628B247
:105780003F1A48BF00270FFA85F8B8F1000F00F361
:10579000AF800898411C0891302205990A54002FC7
:1057A00003DC9DF84000010705D50898411C0891CD
:1057B0002E2205990A5417EB080FB8BF7D4228B274
:1057C000C51932B2414295420B91B8BF2E46059B96
:1057D000089836B2099632462146184401F0D0F9AD
:1057E000AD1B0C95CCE0BBF1610F15D14FF0700BE8
:1057F00017E030B2B84204DA9DF840100A0758BFEB
:1058000007467F1E48BF0027BBF1670F14BF4FF04C
:10581000450B4FF0650B04E0BBF1410F08BF4FF0A3
:10582000500B0898411C0891002F059914F8012B82
:105830000A5403DC9DF84000010719D50898411C63
:1058400008912E2205990A54002F11DD761E30B2E0
:1058500087420598089BB8BF3E4632B2214618449D
:1058600001F08EF9089836B23018BF1B08900B97DC
:10587000059808990844B8F1000F80F800B003D4E7
:105880002B224270821C04E02D2145464170821C6F
:105890006D4200212CAB28460AE004460A2094FB06
:1058A000F0F000EB8005A4EB450403F8014B491C24
:1058B00000B20028F1DC012906DC4BF0200065284D
:1058C00004BF302002F8010B00292CAB08D1302096
:1058D00002F8010B06E0491E585C303002F8010B5B
:1058E0000029F8DC059908980844121A099247E043
:1058F00030B229B288421BDA0598089B32B22146A1
:10590000184401F03DF9089936B27118A8EB060663
:10591000002F08910B9603DC9DF84000020705D587
:10592000059A2E2050540999491C09910C9727E09B
:105930000598089B2AB22146184401F021F90898DD
:10594000761B4044002F089003DC9DF840100A07A6
:1059500004D5411C08912E2205990A5430B2874281
:105960000598089BB8BF3E4632B204EB08011844C4
:1059700001F006F9089836B23018BE1B08900B9655
:105980009DF8400000F01400102840F0C280079AF3
:1059900008990B988A18099982180C988A18821805
:1059A0000F98824280F2B580821A0A92B1E09DF887
:1059B0004200622808D068280ED06A2814D06C28CB
:1059C0001FD0712810D01CE0D9F8001051F8040B3A
:1059D000C9F80010C0B21AE0D9F8001051F8040B51
:1059E000C9F8001080B212E0D9F80020D21D22F0D0
:1059F0000702C9F80020D2E900010832C9F80020E6
:105A000006E0D9F8001051F8040BC9F80010002185
:105A1000CDE902019DF8400001075AD5DDE90223D6
:105A2000002B08BF002A54D04BF02000782850D11A
:105A3000079812A930220A54401C431C079301F80E
:105A400000B046E09DF84200622808D068280ED0D9
:105A50006A2814D06C281FD0712810D01CE0D9F807
:105A6000001051F8040BC9F8001040B21AE0D9F840
:105A7000001051F8040BC9F8001000B212E0D9F878
:105A80000020D21D22F00702C9F80020D2E900014F
:105A90000832C9F8002006E0D9F8001051F8040BCC
:105AA000C9F80010C117CDE90201002902D50798F5
:105AB0002D210AE0BDF84000810702D507982B216F
:105AC00003E0C00705D50798202112AA1154401CF5
:105AD000079012A807990144059102A8594600F0C1
