:020000040800F2
:10000000003E0020FD7C00080D7B00080F7B0008EF
:10001000117B0008137B0008157B0008000000001E
:10002000000000000000000000000000177B000836
:10003000197B0008000000001B7B00081D7B0008E6
:10004000297D00082D7D0008317D0008357D0008E0
:10005000397D00083D7D0008417D0008457D000890
:10006000497D00084D7D0008517D0008557D000840
:10007000597D00085D7D0008617D0008657D0008F0
:10008000697D00086D7D0008717D0008757D0008A0
:10009000797D00087D7D0008817D0008857D000850
:1000A000897D00088D7D0008917D0008957D000800
:1000B000997D00089D7D0008A17D0008A57D0008B0
:1000C000A97D0008AD7D0008B17D0008B57D000860
:1000D000B97D0008BD7D0008C17D0008C57D000810
:1000E000C97D0008CD7D0008D17D0008D57D0008C0
:1000F000D97D0008DD7D0008E17D0008E57D000870
:10010000E97D0008ED7D0008F17D0008F57D00081F
:10011000F97D0008FD7D00087B660008017E00086F
:10012000057E0008097E00080D7E0008117E00088B
:10013000157E00080000000000000000197E000885
:100140001D7E0008217E0008257E0008217B000816
:10015000277B0008297E00082D7E0008317E0008DC
:10016000357E0008397E00083D7E0008417E00088B
:10017000457E0008497E00084D7E00080000000012
:1001800000000000517E0008000000000000000098
:10019000557E00080000000000000000597E0008A5
:1001A0000000000000000000000000005D7E00086C
:1001B000617E0008657E0008697E00086D7E00088B
:1001C000717E000800F5E0700268914203D3436835
:1001D0001A44914202D380680028F5D1704718492B
:1001E000086880B94FF4805048604FF480324FF077
:1001F000FF30C86008610420124B8A604861C3F870
:10020000BC01114808600120704701F1080313F098
:10021000070F0EBF0023C3F1080303F007031944BF
:10022000D21A8161C26042F001034B60091D4FF098
:10023000280C41F802C0024A1369C36170470000EC
:10024000C4350020F43000206859883C2DE9F84F6F
:1002500084B00646AFF30080F52E1E4D80F00F826D
:100260000B2E31BF10260B36F608F6002868F4086E
:10027000E04010F0030F4AD0C04300F00100041921
:1002800005F1280000EBC408E700D8F808607068A2
:10029000C008C000B84218BF01F0E2F9D6F80890D3
:1002A000464508BF01F0DCF94E4508BF01F0D8F91A
:1002B0007068C008C000B84218BF01F0D1F9C84545
:1002C0000AD12868012101FA04F420EA04042C6010
:1002D00010E000BFF43000202869814508D3D9F828
:1002E0000C10B14204D1C8F80890C9F80C8001E0A4
:1002F00001F0B6F947F00300311D7060301DCA5996
:1003000042F00102C25106F1080800F010BFA968CE
:10031000B14280F09F83002800F0A2804FF00108D6
:1003200008FA04F1490000FA04F4484201430C4081
:1003300060420440641E200B00F01000C4406109BC
:1003400001F00801CC40A20802F00402D440630886
:1003500003F002030818DC401018C4F34007181813
:100360003818FC40241805F1280000EBC40AE70007
:10037000DAF80890D9F80400C008C000B84218BFE5
:1003800001F06EF9D9F808B0D14508BF01F068F95D
:10039000D94508BF01F064F9D9F80400C008C000CD
:1003A000B84218BF01F05CF9DA4506D1286808FAAE
:1003B00004F420EA04042C600DE029698B4508D37D
:1003C000DBF80C00484504D1CAF808B0CBF80CA003
:1003D00001E001F045F9BF1B46F0030009F10402FA
:1003E000C9F8040047F00101915109EB060201929E
:1003F000D751AC684FEAD40ABAF11F0F88BF01F099
:100400002FF934B3CDF800A005F128006E6900EB98
:10041000CA0AD346102C38BF01F022F92968009887
:1004200021FA00F2D30704D408FA00F00843286048
:1004300007E0DAF80800296988422CBF834601F0FA
:100440000FF9CAF80860CBF80C60C6F808B0C6F817
:100450000CA0AF6009F108080198686100F067BE60
:100460006868002800F0178341420840401E010BD5
:1004700001F01001C840420902F00802D040830890
:1004800003F00403D840440804F002045118E0408B
:100490005918C0F34007611805F598787918F840A5
:1004A000401858F820104868C008C0008A46A0EBE1
:1004B000060B08E001464868C008C000801B58458C
:1004C0003CBF83468A4608690028F3D14969002960
:1004D000F1D128698245C0F0CF80DAF80410C9084C
:1004E00006EB0B09C900494518BF01F0B9F80AEB42
:1004F00006008245019080F0BF80DAF80C40DAF8FF
:10050000187054450DD0DAF808002969884223D3C1
:10051000C268524504BFA16851451DD1C460A060A6
:100520001CE00AF114010C6834B90AF110010C68DE
:10053000A4B101E011460C6804F11402106800280F
:1005400002BF04F1100210680028F3D1286981422B
:1005500002D300220A6001E001F082F8002F34D0BB
:10056000DAF81C0008EB800001688A4509D10460B4
:1005700094B9DAF81C0069680122824091436960ED
:1005800023E02869874205D33969514514BF7C614E
:100590003C6101E001F064F8BCB129698C4212D3DE
:1005A000A761DAF8100028B1884226BF2061846173
:1005B00001F056F8DAF8140038B12969884202D3FC
:1005C0006061846101E001F04BF8BBF1100F0ED2C5
:1005D00049F003000AF10401CAF804000AF104001A
:1005E00051F8092042F0010240F809203EE046F0AF
:1005F00003010AF10402CAF804104BF00100905103
:10060000019941F80BB0A8680090C4081F2C88BF5E
:1006100001F026F8009828B305F1280000996F69C9
:1006200000EBC408C146102938BF01F019F828684A
:1006300020FA04F1CA0705D4012101FA04F40443A5
:100640002C6007E0D8F80800296988422CBF814651
:1006500001F006F8C8F80870C9F80C70C7F80890DF
:10066000C7F80C80C5F808B0019868611AF108084D
:1006700000F0F08100F05BBD00F0F2FFEAE116F15E
:10068000400F28BF4FF0FF3680F0E4810B36F608AC
:100690006B68F600002B00F0DD810027300AC6F100
:1006A000000908BF002423D0B0F5803F28BF1F24D5
:1006B0001ED2A0F58071090C01F008018840A0F558
:1006C0008052120C02F004029040A0F58044240CE9
:1006D000C1F10E0104F00204891A091BA04001EBCC
:1006E000D031C81D26FA00F404F0010404EB4104E3
:1006F00005F5987858F8240030B31F2C0FBFB44686
:100700004FEA540CCCF1190C06FA0CFCBE464946D3
:1007100001E04FEA4C0C4268D208D200921B8A4298
:1007200002D2110007460CD0426910304FEADC7942
:1007300050F82900002A1CBF824296460028E8D1C2
:1007400070468946A8BBB7BB012101FA04F46400D6
:1007500060420443234000F07D81584203405B1E09
:10076000180B00F01000C340590901F00801CB40FC
:100770009A0802F00402D3405C0804F0020408184E
:10078000E3401018C3F3400C2018604423FA0CF324
:100790001B1858F823000CE008464168C908C90036
:1007A000891B49453CBF8946074601690029F3D1A9
:1007B00040690028F1D1002F00F04C81A868801B0F
:1007C000814580F0478129698F42FFF455AF7868F1
:1007D000C008C00006EB0901884218BF00F040FFC6
:1007E00007EB060B5F45BFF447AFFC68D7F818A0CE
:1007F000BC420CD0B8682969884223D3C268BA4287
:1008000004BFA168B9421DD1C460A0601CE007F11B
:1008100014010C6834B907F110010C68A4B101E0AF
:1008200011460C6804F114021068002802BF04F19C
:10083000100210680028F3D12869814202D30022F7
:100840000A6001E000F00CFFBAF1000F34D0F86943
:1008500008EB800001688F4208D10460A4B9F869F0
:100860006968012282409143696025E028698245D8
:1008700008D3DAF81010B94214BFCAF81440CAF805
:10088000104001E000F0ECFEB4B129698C4211D3B4
:10089000C4F818A0386928B1884226BF2061846155
:1008A00000F0DEFE786938B12969884202D36061C0
:1008B000846101E000F0D4FEB9F1100F0CD2B14414
:1008C00049F00300391D7860381D51F8092042F0C5
:1008D000010240F80920B9E046F003013A1D7960B1
:1008E00049F0010090514FEAD9004BF809901F28B8
:1008F00022D805F1280101EBC004296821FA00F291
:10090000D307A04605D4012202FA00F0084328606C
:1009100006E0A068296988422CBF804600F0A0FE4E
:10092000C4F808B007F10800C8F80CB040F8068019
:1009300007F10C018C5189E05FEA192008BF002102
:1009400023D0B0F5803F28BF1F211ED2A0F58072B2
:10095000120C02F008029040A0F58051090C01F041
:1009600004018840A0F580431B0CC2F10E0203F085
:100970000203521AD21A984002EBD032D01D29FA43
:1009800000F101F0010101EB420107F11403CBF882
:100990001C1000229A5107F1100308EB81009A51B4
:1009A0006A6822FA01F3DC0711D4012303FA01F18A
:1009B00011436960C0F800B0CBF8180007F10801D6
:1009C00007F10C0040F806B041F806B03EE00268BE
:1009D0001F291DBF4908C1F1190109FA01F1494652
:1009E00000E002465068C008C000484518D002F137
:1009F0001003C80F03EB8003490018680028F0D1EA
:100A00002869834220D3C3F800B007F10C01CBF86A
:100A1000182041F806B007F1080040F806B015E0CC
:100A2000296990688A4228BF88420DD3C0F80CB06B
:100A300007F10801C2F808B0885107F10C00825193
:100A40000022CBF8182001E000F00AFE17F1080898
:100A500040F06D83A868B0421DD3811B6A691029DC
:100A60000AD390196861A96041F0010343604150C5
:100A700046F0030656600BE00021A9606961131D72
:100A800040F003015160111D1C5844F001040C504A
:100A900002F108084BE3E8688642C0F03883DFF8CB
:100AA000B89BD9F8000008B9FFF799FBD9F80810EE
:100AB00088192F30491E20EA01018E4280F03583CB
:100AC00005F5D877B86838B13A6889188A4280F055
:100AD0002C838842C0F0298300F0E2FD00281CBF6F
:100AE000D0F8008010F1010F00F01F8339687A6898
:100AF000414439608A4238BF7960AC6904BB2969D6
:100B000009B1884200D2286100213861C7F81480F9
:100B1000F9614FF0FF31D9F800206A62296205F1CE
:100B200028020021D260926002F10804546114612D
:100B3000891C10321F29F5D9A8F1280201461DE0B1
:100B400005F5E0710A46814600E09268D2B110686E
:100B5000536803449945F8D1107B030712D41368F6
:100B60009C420FD3D2F804C063449C420AD2C444CE
:100B7000C2F804C02146E86808EB00022846FFF7E7
:100B800044FBC1E22869814538BFC5F8109009EBE4
:100B9000080000E08968002900F0BD810A688242EF
:100BA000F8D1087B020700F1B6810868C1F800900F
:100BB0004A6842444A6009F1080111F0070F08BF72
:100BC000CDF8049006D0C1F1080101F0070109EB4E
:100BD0000102019200F1080111F0070F04D0C1F1E8
:100BE000080101F00701084480460198A8EB0001C4
:100BF0008419A1EB060B274646F0030646604745DD
:100C000028BF00F02DFD98F80400C10758BF00F080
:100C100027FDBBF1100F38BF00F022FDA869804509
:100C200008D1E9688B44C5F80CB0AF614BF0010006
:100C300078606CE1686980450AD1A9688B44C5F881
:100C400008B06F614BF00100786047F80BB05EE1CF
:100C5000D8F8040000F00301012940F0B880C00872
:100C6000C000C1081F29039040D8D8F8082000927E
:100C7000D8F80C600291B04508BF00F0F1FC009874
:100C8000804508BF00F0ECFCD8F804000299C008C9
:100C9000C000B0EBC10F18BF00F0E2FC0299009A4F
:100CA00005F1280000EBC100824208D011462A69F4
:100CB0009142C0F08780CA68424540F08380009925
:100CC0008E4206D102982A68012383409A432A6003
:100CD0007AE0864205D029698E4273D3B0684045D8
:100CE00070D10098C6600099B1606DE0D8F8180026
:100CF0000090D8F80C6046450DD0D8F80800296956
:100D0000884223D3C268424504BFB16841451DD122
:100D1000C660B0601CE008F114010E6836B908F135
:100D200010010E68A6B101E011460E6806F114022A
:100D30001068002802BF06F1100210680028F3D1E5
:100D40002869814202D300220A6001E000F088FC99
:100D50000098002838D0D8F81C0005F5987101EBF0
:100D600080000168884509D106609EB9D8F81C004A
:100D70006968012282409143696025E000982969F1
:100D8000884205D30169414514BF4661066101E00F
:100D900000F066FCC6B129698E4213D30098B06199
:100DA000D8F8100028B1884226BF3061866100F073
:100DB00057FCD8F8140038B12969884202D3706111
:100DC000866101E000F04CFC039988448B44D8F81C
:100DD000041049084900C8F804104BF0010078607D
:100DE0004FEADB0647F80BB01F2E22D805F128008A
:100DF00000EBC604A146BBF1100F38BF00F030FC79
:100E0000286820FA06F1CA0705D4012101FA06F67E
:100E100006432E6006E0A068296988422CBF8146FF
:100E200000F01EFCA760C9F80C70C7F80890FC60C1
:100E30006DE05FEA1B2008BF002123D0B0F5803FA2
:100E400028BF1F211ED2A0F58072120C02F00802EA
:100E50009040A0F58051090C01F004018840A0F5F4
:100E600080431B0CC2F10E0203F00203521AD21A85
:100E7000984002EBD032D01D2BFA00F101F00101B5
:100E800001EB4201F961002305F598727B6102EBE9
:100E900081003B616A6822FA01F3DE0707D401236F
:100EA00003FA01F1114369600760B8611DE002684F
:100EB0001F291DBF4908C1F119010BFA01F159465B
:100EC00000E002465068C008C000584510D002F14A
:100ED0001003C80F03EB8003490018680028F0D105
:100EE0002869834211D31F60BA61FF60BC600EE0C5
:100EF000296990688A4228BF884206D3C7609460F7
:100F0000B860FA600020B86101E000F0A9FB019828
:100F100000F108080BE121462846FFF753F9016864
:100F2000406808440090A0F1270111F007000098E4
:100F30000EBF0021C1F1080101F007010844A0F132
:100F40002F0B04F110018B4538BFA3460BF118029B
:100F5000002102920191A8F1280249462846FFF794
:100F600054F90BF1080010F0070F18BF00F078FBE0
:100F70001B20CBF8040005F5E07292E809500BF154
:100F8000080181E8095000210BF10800F961B861FE
:100F9000009A02980199C7F81090C7F814800723A7
:100FA00000E0001D491C00F1080797424360F8D398
:100FB0000129D8BF00F054FBA34500F0A580ABEB9E
:100FC000040B201D221D50F80B104908490042F85F
:100FD0000B104BF0010060604FEADB0944F80BB0E6
:100FE000B9F11F0F22D805F1280000EBC907B84658
:100FF000BBF1100F38BF00F033FB286820FA09F16D
:10100000CA0705D4012101FA09F10843286006E066
:10101000B868296988422CBF804600F021FBBC607B
:10102000C8F80C40C4F80880E7606DE05FEA1B2058
:1010300008BF002123D0B0F5803F28BF1F211ED25A
:10104000A0F58072120C02F008029040A0F58051C9
:10105000090C01F004018840A0F580431B0CC2F18B
:101060000E0203F00203521AD21A984002EBD03259
:10107000D01D2BFA00F101F0010101EB420105F551
:101080009872002302EB8100E161636123616A6869
:1010900022FA01F3DF0707D4012303FA01F1114318
:1010A00069600460A0611DE002681F291DBF490836
:1010B000C1F119010BFA01F1594600E002465068EE
:1010C000C008C000584510D002F11003C80F03EB50
:1010D0008003490018680028F0D12869834211D3A1
:1010E0001C60A261E460A4600EE0296990688A42F5
:1010F00028BF884206D3C4609460A060E2600020EC
:10110000A06101E000F0ACFAE86886420DD2801BD5
:10111000A969E8608A19AA6140F00100506046F0B0
:1011200003064E6001F1080801E04FF00008AFF33C
:101130000080404605B0BDE8F08F002800D1704720
:101140002DE9F047A0F10805AFF30080DFF80C654A
:1011500031698D42C0F07A82686800F00302012A8A
:1011600000F07482C2084FEAC209C20705EB090801
:1011700039D42C6810F0030F00F06A8260420544F5
:101180008D42A144C0F062827069854200F0DA802D
:10119000E408202C72D2D5F80CA0AF68554508BFE2
:1011A00000F05EFABD4208BF00F05AFA6868C00855
:1011B000C000B0EBC40F18BF00F052FA06F12800CF
:1011C00000EBC400874205D031698F4253D3FA68DF
:1011D000AA4250D1BA4540D13068012101FA04F445
:1011E00020EA04043460454580F03082D8F8044099
:1011F000E00740F12B82A10700F17C81B0698045B6
:1012000040F0B380F168B5618944C6F80C9049F0AC
:101210000100686071698D4202D100207061B06088
:10122000F169494580F01482DFF82C24106808B970
:10123000FEF7D5FFB169002900F00A82F06829287D
:1012400024BF3046FEF7BEFFF069F168884280F0A7
:10125000FF814FF0FF30F061FAE1824506D030693E
:10126000824508D3DAF80810A94204D1C7F80CA0C7
:10127000CAF80870B7E700F0F3F9B4E7EC68AF69B3
:10128000AC420BD0A868884222D3C168A94204BFEF
:10129000A268AA421CD1C460A0601BE005F1140240
:1012A000146834B905F1100214689CB101E01A46C3
:1012B000146804F114031868002802BF04F1100335
:1012C00018680028F3D18A4202D30021116001E09E
:1012D00000F0C6F9002F86D0E96906F5987000EB9A
:1012E00081000268954209D10460200011D1E869AB
:1012F0007168012282409143716074E730698742CE
:1013000005D33969A94214BF7C613C6101E000F05A
:10131000A7F9002C3FF467AF31698C42ABD3A761CA
:10132000286928B1884226BF2061846100F098F9BD
:10133000686900283FF457AF316988429BD36061E8
:10134000846150E798F8040000F0030003287FF45C
:101350004AAFC6F8089049F00101D8F804004008E7
:101360004000C8F8040069600AE0706980450AD14D
:10137000B16875618944C6F8089049F00100686059
:1013800045F8099064E1E408E400A144E408202C55
:101390003AD2D8F80CA0D8F80870D04508BF00F0B1
:1013A0005FF9B84508BF00F05BF9D8F80400C00841
:1013B000C000B0EBC40F18BF00F052F906F12800CE
:1013C00000EBC400874207D031698F42C0F08580AE
:1013D000FA68424540F08180BA4507D13068012162
:1013E00001FA04F420EA0404346078E0824506D06F
:1013F0003069824571D3DAF8081041456DD1C7F8DC
:101400000CA0CAF808706AE0D8F80C40D8F8187038
:1014100044450DD0D8F808003169884223D3C2680A
:10142000424504BFA16841451DD1C460A0601CE0D5
:1014300008F114010C6834B908F110010C68A4B16A
:1014400001E011460C6804F114021068002802BF84
:1014500004F1100210680028F3D13069814202D3F0
:1014600000220A6001E000F0FBF8002F37D0D8F826
:101470001C1006F5987000EB8100026890450AD1B7
:101480000460200012D1D8F81C007168012282404B
:101490009143716023E03069874205D33969414542
:1014A00014BF7C613C6101E000F0DAF8BCB1316945
:1014B0008C4212D3A761D8F8100028B1884226BF09
:1014C0002061846100F0CCF8D8F8140038B131699B
:1014D000884202D36061846101E000F0C1F849F004
:1014E0000100686045F8099071698D420BD1C6F81A
:1014F0000890ADE064086400C8F8044049F00100B9
:10150000686045F809904FEAD907202F22D206F1EA
:10151000280000EBC704A046B9F1100F38BF00F057
:101520009FF8306820FA07F1CA0705D4012101FAB3
:1015300007F70743376006E0A068316988422CBF8F
:10154000804600F08DF8A560C8F80C50C5F80880FA
:10155000EC607DE05FEA192008BF002123D0B0F5E0
:10156000803F28BF1F211ED2A0F58072120C02F00E
:1015700008029040A0F58051090C01F00401884058
:10158000A0F580431B0CC2F10E0203F00203521AB5
:10159000D21A984002EBD032D01D29FA00F101F0A6
:1015A000010101EB420106F59872002302EB810074
:1015B000E9616B612B61726822FA01F3DC0707D4E1
:1015C000012303FA01F1114371600560A8611DE078
:1015D00002681F291DBF4908C1F1190109FA01F16B
:1015E000494600E002465068C008C000484510D097
:1015F00002F11003C80F03EB8003490018680028AC
:10160000F0D13069834211D31D60AA61ED60AD60F5
:101610000EE0316990688A4228BF884206D3C560CF
:101620009560A860EA600020A86101E000F018F869
:10163000306A401E30620BD1D6F8C80100E08068E5
:101640000028FCD14FF0FF30306201E000F008F8D4
:10165000AFF30080BDE8F087C4350020F4300020EF
:10166000012000F033B830B4002513E050F8042B0B
:10167000D30744BFA9F101039A18091F042942F8AE
:10168000045BFAD213468C0744BF15809B1CC90724
:1016900048BF1D7050F8041B0029E7D130BC7047CB
:1016A0000749086808B1002070470648C008C00014
:1016B00008600549C908C900091A0160704700BFE0
:1016C000F0350020073E002000DE00202021090325
:1016D00026311820ABBEF9E72DE9F14FB0B09246A4
:1016E00004910DF142013A9A2B9199464A700020DB
:1016F0000AE01AF8011B0498309A904700280490D9
:1017000000F0A8860D98401C0D909AF8000050B18A
:101710002528EED1002100220791089209910A9212
:101720000B910C9204E00D9800F096BE41F001017F
:101730001AF8010F2028F9D023280CD02B2804D028
:101740002D2805D0302809D00BE041F00201EFE749
:1017500041F00401ECE741F00801E9E741F0100134
:10176000E6E72A280FD1D9F8002052F8040BC9F86F
:10177000002000280F9003D540420F9041F0040153
:101780000AF1010A14E00F92DFF828380AE00F98F6
:10179000984205DA00EB800402EB4402303A0F92E3
:1017A0000AF1010A9AF80020A2F130000A28EED3CB
:1017B0009AF800002E2803D04FF0FF320E9229E055
:1017C0001AF8010F2A2809D1D9F8000050F8042B83
:1017D000C9F800000E920AF1010A1BE02D280CBF87
:1017E0000AF1010A002000220E92DFF8C8470BE040
:1017F00040B90E9AA24205DA02EB820503EB4503DB
:10180000303B0E930AF1010A9AF80030A3F130023E
:101810000A2AEDD3ADF84010DFF89C07784400F5B4
:10182000F3609AF8001000F031FF08B11AF8010BCC
:101830008DF842009DF84200682805D19AF8000012
:1018400068280CD1622106E06C2804BF9AF80000D9
:101850006C2804D171218DF842100AF1010A12A8F6
:1018600006901AF801BBBBF125012CD01C3900F001
:10187000D081091F022940F2CC81133900F015856F
:10188000093900F0C681891E00F0AA85491E00F0C2
:101890005785491E022940F2BC81091F00F050857E
:1018A000491F00F02881491E00F0FF84491E00F006
:1018B000D080C91E0DD0891E00F0F784C91E00F02B
:1018C000F48400F098BD25238DF84830012100F004
:1018D0009DBDD9F8000050F8044BC9F80000002C59
:1018E000059440F0A3802B994878002800F0998057
:1018F0004FF0FF340FF6683000F0D4FE201A40F0AD
:10190000A98500F084BD6D1E40F09B853096079D33
:1019100012AF75B1309E17F8012B02A9304600F0C6
:1019200065FE002801D46D1EF5D10028309640F0E8
:1019300091850A9D3020002D8DF804000CDD309E2D
:10194000012301AA02A9304600F060FE002840F001
:1019500081856D1EF4D13096059F089D75B1309E2E
:1019600017F8012B02A9304600F040FE002801D4F0
:101970006D1EF5D10028309640F06C850B9D30200F
:10198000002D8DF804000CDD309E012301AA02A970
:10199000304600F03BFE002840F05C856D1EF4D11F
:1019A000309605980899099D471875B1309E17F82B
:1019B000012B02A9304600F019FE002801D46D1E4B
:1019C000F5D10028309640F045850C9D3020002D43
:1019D0008DF804000CDD309E012301AA02A93046D7
:1019E00000F014FE002840F035856D1EF4D13096CD
:1019F0009DF8400041077FF588AE2020002C8DF82F
:101A000004007FF782AE309D012301AA02A9284677
:101A100000F0FCFD002840F01D85641EF4D13095D7
:101A200073E60FF64840059000F0F1BC0E9D002DC6
:101A300004D5204600F056FE044607E02A4620461C
:101A400000F06CFE002814BF041B2C46089400F024
:101A5000DEBCD9F8001051F8040BC9F8001020F0D2
:101A60000004002121F0FF3512ABCDE902450593BA
:101A7000DDE9022306993C2413B90AB90E9898B1FE
:101A800002F00F053035641EEEB23A2EA8BF27359E
:101A9000120942EA03721B090D5508BF002A03D040
:101AA00005980D19A842EBD308190590C4F13C0222
:101AB0000E98089282420ADABDF84010821A4FF658
:101AC000EF7001400A92ADF8401000F0A0BC002871
:101AD00040F19D849DF8400000F01400102840F073
:101AE00096840F9B07990A985B1A1B1A9A1A002A68
:101AF00040F38D84D7E32B99487820B14FF0FF3421
:101B00000FF63830F8E69DF84200622861D0682868
:101B100017D06A283FD06C2806D0712847D0742887
:101B20002CD07A281DD064E0D9F8001051F8040BAD
:101B3000C9F80010002868D14FF0FF340FF61430B8
:101B4000DAE6D9F8001051F8040BC9F8001020B9F2
:101B50004FF0FF340FF6FC20CEE60D99018000F027
:101B600056BCD9F8001051F8040BC9F80010002831
:101B70004BD14FF0FF340FF6DC20BDE6D9F8001052
:101B800051F8040BC9F8001000283ED14FF0FF3483
:101B90000FF6C020B0E6D9F8001051F8040BC9F8D0
:101BA000001080B94FF0FF340FF6A820A4E6D9F852
:101BB000001051F8040BC9F8001020B94FF0FF34A1
:101BC0000FF6902098E60D9AD317C0E9002300F095
:101BD0001EBCD9F8001051F8040BC9F8001020B948
:101BE0004FF0FF340FF66C2086E60D99017000F07F
:101BF0000EBCD9F8001051F8040BC9F8001020B938
:101C00004FF0FF340FF64C2076E60D99016000F09E
:101C1000FEBBD9F80020D21D22F00702C9F800202F
:101C2000D2E900010832C9F80020CDE90201C80F4D
:101C300002D007982D210AE0BDF84000810702D5A7
:101C400007982B2103E0C00705D50798202112AA89
:101C50001154401C0790DDE90223079912A8CDE931
:101C60002C2308444BF020016129059021AC0BD0B6
:101C70000E99002902D506210E9105E001BF4BF017
:101C80002001672901220E92DDE90223590049153E
:101C9000491C0DD11A030BD0ABF1610503211A2D9C
:101CA000089102D20FF6C81110E00FF6C8110DE02E
:101CB00059004915491C0DD11A030BD1ABF161052F
:101CC00003211A2D089119D30FF6B011032200F049
:101CD00051FD9CE3DDE90201CDE92E01DDE92E2372
:101CE00023F00047B7F5801F22F000060DD2002236
:101CF000002F08BF002E009203D116E00FF67811D6
:101D0000E4E76A4600F08AFD0FE0DFF8C008DFF87C
:101D1000C01800EB17500090DDE92E234FF0FF3084
:101D20001940DFF8B07810403943CDE902014BF09B
:101D3000200061280DD1059830210170821CBBF173
:101D4000610F05920CBF7821582141700798801CC3
:101D50000790DDE9020120F0000231F0004308BFE6
:101D6000002A02D10026002568E14BF02008B8F1D6
:101D7000610F40F0B4800E98002847BF21210191E7
:101D8000401C0190019FDDE92C017F1C00220023F3
:101D9000DDE9024500F07AFD00998DF8842038BF16
:101DA00085F00045091F002F00910DF1850653DDD8
:101DB000204629460022002300F080FD4CD2480036
:101DC000400D00F11C0212D0002A10DD40F2FF731A
:101DD0009A4206DBDFF8001805F0004001430020BE
:101DE00011E06FF31E5141EA025120460BE024F04E
:101DF000000035F0004108BF00280FBF29461C2213
:101E0000294600F073FD04460D4600F00DFEFF1F4D
:101E1000002F804609DD00F025FE02460B462046D5
:101E2000294600F031FE04460D46F01D0721B8F1A9
:101E3000000F0CDD491E5EBF08F00F0200F8012DF7
:101E40004FEA2818F3D502E0002200F8012D491EC0
:101E5000FAD5C61D002FABDC0DF18500361A0198AE
:101E60008642D8BF304600280DF1850430D4B042F8
:101E700006DA0DF185010A5C082AA8BF0F2100DAF5
:101E80000021024621AB134400E0401E13F8015923
:101E9000521E8D42F9D00F2904D10DF185018B5CC2
:101EA0005B1C8B54002A04D50099091D21AC401CF1
:101EB0000091411E0CD46218ABF13A06137830330E
:101EC000DDB23A2DA8BFF318491E02F80139F5D545
:101ED0000E99002940F1B080421E0E92ACE00099AC
:101EE000DFF8F82647F29750414391FBF2F2DDE923
:101EF0002C45009225F00045D2F1070204DD204672
:101F0000294600F040FB0BE052420020DFF8D016DB
:101F100000F039FB02460B462046294600F026FE1B
:101F20000446B8F1660F0E9806BF009F0A370627D1
:101F30003F18142FC8BF142730200D468DF8840099
:101F40000DF18506002F39DD2046294600F032FFCD
:101F500001460A4606F1080304200A26B2FBF6F6FB
:101F600006EB860EA2EB4E02303203F8012C0A2259
:101F7000B6FBF2F202EB820EA6EB4E063036401EA6
:101F800003F8026DE9D1083F002F03F10806D9DDFF
:101F9000084600F023FF02460B462046294600F083
:101FA00073FD0022DFF83C3600F026FF04460D46A4
:101FB000CAE700BFCBCCCC0C685D00000DF18500FA
:101FC000361A0DF1850404E00098401E761E00903C
:101FD000641C20783028F7D0B8F1660F02D1009940
:101FE000491C04E0B8F1650F0CBF012100210E98D7
:101FF00008188642B8BF701E00281DD4B04204DA0B
:10200000215C3429C8BF392100DC30210246631E1F
:102010009D1800E0401E15F80169521E8E42F9D04D
:10202000392902D1A15C491CA154002A04D5009988
:10203000491C1C46401C00910646009D0E9F30B274
:10204000002802DC01260FF238644BF020006628DD
:1020500008BF6D1C15D067280FFA85F841D118F11B
:10206000040F44DBB84542DA9DF840006D1C0107BF
:1020700003D430B2B842B8BF074628B23F1A48BFAF
:1020800000270FFA85F8B8F1000F00F3AF80089829
:10209000411C0891302205990A54002F03DC9DF859
:1020A0004000010705D50898411C08912E2205998A
:1020B0000A5417EB080FB8BF7D4228B2C51932B2D7
:1020C000414295420B91B8BF2E46059B089836B207
:1020D000099632462146184400F04CFBAD1B0C9586
:1020E000CCE0BBF1610F15D14FF0700B17E030B2AF
:1020F000B84204DA9DF840100A0758BF07467F1E11
:1021000048BF0027BBF1670F14BF4FF0450B4FF0DE
:10211000650B04E0BBF1410F08BF4FF0500B08986E
:10212000411C0891002F059914F8012B0A5403DC77
:102130009DF84000010719D50898411C08912E22EE
:1021400005990A54002F11DD761E30B2874205989A
:10215000089BB8BF3E4632B22146184400F00AFB45
:10216000089836B23018BF1B08900B97059808994D
:102170000844B8F1000F80F800B003D42B2242705D
:10218000821C04E02D2145464170821C6D420021D5
:102190002CAB28460AE004460A2094FBF0F000EB42
:1021A0008005A4EB450403F8014B491C00B200284C
:1021B000F1DC012906DC4BF02000652804BF30204B
:1021C00002F8010B00292CAB08D1302002F8010BDA
:1021D00006E0491E585C303002F8010B0029F8DC9B
:1021E000059908980844121A099247E030B229B2BA
:1021F00088421BDA0598089B32B22146184400F049
:10220000B9FA089936B27118A8EB0606002F0891A2
:102210000B9603DC9DF84000020705D5059A2E2099
:1022200050540999491C09910C9727E00598089B7F
:102230002AB22146184400F09DFA0898761B4044C3
:10224000002F089003DC9DF840100A0704D5411CBC
:1022500008912E2205990A5430B287420598089BAE
:10226000B8BF3E4632B204EB0801184400F082FACF
:10227000089836B23018BE1B08900B969DF84000A7
:1022800000F01400102840F0C280079A08990B98BB
:102290008A18099982180C988A1882180F98824215
:1022A00080F2B580821A0A92B1E09DF8420062285D
:1022B00008D068280ED06A2814D06C281FD0712846
:1022C00010D01CE0D9F8001051F8040BC9F8001028
:1022D000C0B21AE0D9F8001051F8040BC9F8001088
:1022E00080B212E0D9F80020D21D22F00702C9F80E
:1022F0000020D2E900010832C9F8002006E0D9F830
:10230000001051F8040BC9F800100021CDE90201BA
:102310009DF8400001075AD5DDE90223002B08BFD4
:10232000002A54D04BF02000782850D1079812A9E9
:1023300030220A54401C431C079301F800B046E0C9
:102340009DF84200622808D068280ED06A2814D070
:102350006C281FD0712810D01CE0D9F8001051F85B
:10236000040BC9F8001040B21AE0D9F8001051F877
:10237000040BC9F8001000B212E0D9F80020D21DF9
:1023800022F00702C9F80020D2E900010832C9F89A
:10239000002006E0D9F8001051F8040BC9F800102D
:1023A000C117CDE90201002902D507982D210AE0C5
:1023B000BDF84000810702D507982B2103E0C00734
:1023C00005D50798202112AA1154401C079012A885
:1023D00007990144059102A8594600F04FF816E00C
:1023E00001200790D9F8000050F8041BC9F800003C
:1023F0008DF848100BE025210122BBF1000F8DF86C
:102400004810079203D08DF849B0022107910F9A26
:1024100007980A990C9C121A0898521A0B99121ACA
:102420000998521A121A9DF84000141B41073FF5F3
:102430006EAA2020002C8DF804007FF768AA309E39
:102440002546012301AA02A9304600F0DFF8002842
:102450003FF459AA4FF0FF3031B0BDE8F08F0000D3
:102460007072696E74665F733A20626164202573CE
:1024700020617267756D656E740000002DE9FC4384
:1024800007466F293E6908BF082405D041F02000A7
:10249000782814BF0A2410243C25D7E90023642996
:1024A00018BF69299046994605D1002B03D5D8F16C
:1024B000000869EB4909B9F1000F08BFB8F1000F36
:1024C0000CD1386B50B9082C39D197F83800010776
:1024D00035D530203B2586F83B0030E08DF80010E4
:1024E000404649462246E31700F058FD3032D0B24C
:1024F0006D1E3A28019504DB9DF80000A0F1510102
:102500008A187255404649462246E31700F046FDB8
:1025100080465FEA010908BFB8F1000F03D0F868F0
:1025200071198842DCD3082C09D197F838000107CB
:1025300005D5705D302802D06D1E30207055C5F174
:102540003C02BA617119F960386B824208DA821A6A
:102550003A624FF6EF70398F01403987BDE8F38357
:1025600000280ED597F8380000F01400102808D184
:102570007B6B7969386A5B1A1B1A9A1A002AC8BFE2
:102580003A62BDE8F3832DE9D04306460F46144670
:102590004FF00008DFF8509012E0E00707D5424600
:1025A0004B463046394600F027FC06460F4640466B
:1025B000494642464B4600F01FFC6410804689465F
:1025C000002CEAD130463946BDE8D08302FCFFFF3B
:1025D000FFFF0F800000E03F0000F07FA0860100B9
:1025E0000000F03F84D797410000244010B5034617
:1025F0000C461146A0689847A06020B1E06A401CD4
:10260000E062002010BD4FF0FF3010BDF8B5054668
:102610000E4617461C4600205CB117F8011BB06837
:10262000A847B06030B1F06A401CF0620020641E20
:10263000F3D1F2BD4FF0FF30F2BD00007072696E51
:1026400074665F733A20256E20646973616C6C6FE9
:10265000776564007072696E74663A206261642006
:10266000256E20617267756D656E74000000000054
:102670006E616E004E414E00696E6600494E460026
:1026800030000268531C036011707047C9B20278B1
:102690008A421AB11CBF10F8012FF9E718BF0020B9
:1026A0007047000080B500B906A005490B681BB152
:1026B00022220021984701E0FEF7D2FF222002BD2E
:1026C000F4350020636F6E73747261696E742068F4
:1026D000616E646C65723A20626164206D6573732B
:1026E0006167650000F10103810704D010F8011B48
:1026F000820781B1FAD10268A2F10131914311F050
:10270000803104BF50F8042FF6E709BAB1FA81F11D
:1027100000EBD100401CC01A70470000C9B283070B
:1027200006D0521E22D310F8013B9942F7D11FE088
:10273000083A13D302F1040241EA012141EA0141BE
:1027400050F8043B121F21BF4B40A3F1013C2CEA7F
:10275000030C1CF0803FF3D0C9B2001F083210F800
:10276000013B521E28BF91EA030FF8D818BF012081
:10277000401E704762B38B0708D0521E11F8013B10
:1027800000F8013B00F024808B07F6D1830740F06E
:10279000208000BF103A07D330B4B1E83810103AA7
:1027A000A0E83810F9D230BC530724BFB1E80810B4
:1027B000A0E8081044BF51F8043B40F8043BD2079E
:1027C00024BF31F8022B20F8022B44BF0B78037092
:1027D0007047121F17D35B0009D151F8043B20F852
:1027E000023B1B0C121F20F8023BF6D20BE051F803
:1027F000043B00F8013B1B0A20F8023B1B0C121F94
:1028000000F8013BF3D238BF121D521E24BF11F84D
:10281000013B00F8013BF8D87047000010B51446A2
:1028200000F002F8226010BDC1F30A5343B14A0020
:1028300012F5001F28D2A3F2FE32A1EB025170471D
:1028400050EA410C20D001F0004C31EA0C01B1FA01
:1028500081F204BFB0FA80F3D2180B3AB2F1200330
:102860002CBF00FA03F1914041EA0C013EBFC2F1D6
:10287000200C20FA0CF319439040524240F2FD33F1
:10288000D21A01EB03517047002270474FF4001C2D
:102890001CEB410F94BF1CEB430F09E041EA030C12
:1028A00050EA4C0C52EA0C0C03D2994208BF9042F9
:1028B000704714BF8B428242704700004FF4001CE7
:1028C0001CEB410F94BF1CEB430F09E041EA030CE2
:1028D00050EA4C0C52EA0C0C03D28B4208BF8242E5
:1028E000704714BF9942904270470000124254D47E
:1028F00040F2FF7C1CEA11530FD0634531D09B1886
:1029000063453CBF01EB0251704701F0004141EAD1
:102910000C510020AFF30080704750EA410320D0F3
:1029200001F0004C91EA0C011CD0B1FA81F30B3B91
:102930009A420DD9D21A994051EA0C01C3F1200CE8
:1029400020FA0CFC61449840531C40F2FF7CD7E70E
:10295000914041EA0C01C2F1200C20FA0CF319431A
:1029600090407047B0FA80F31533202BE0D3202A33
:10297000EED3203A203B9A4209D9D21A00FA03F149
:1029800041EA0C010020531C40F2FF7CB8E700FA3A
:1029900002F141EA0C0100207047524240F2FF7CF4
:1029A0001CEA11530DD06345DBD0B2EB030C3CBFE6
:1029B000A1EB025170470CF1010221EA035141F4ED
:1029C000801150EA410CCCD001F0004C352A27DCB4
:1029D00030B481EA0C01B2F1200309DAC2F120031C
:1029E000044601FA03F5D0402843D1409C400CE056
:1029F000C3F12002450020FA03F418BF44F001049B
:102A000021FA03F091400C43002174F1004550F18C
:102A1000000051EB0C01244230BC7FF47BAF7047C7
:102A20006146002076E70000C1F30A5340F2FE320F
:102A30009B1A14DDD3F120034FEAE17208DDC902CD
:102A400041EA505141F00040D84080185040704752
:102A500003F2E13010B1D24382F000407047002011
:102A600070470000C11768B14840401AB0FA80F2C0
:102A70009040D21CC907C2F5846241EA025202EBBF
:102A8000D02140057047000070B44FF0004591EA36
:102A9000030F40F19B836B40841A71EB030603D252
:102AA000001BB141121973414FF4001C1CEB410F84
:102AB00034BF7CEB430442E00C0DA4EB1356352EDF
:102AC0004FDC45EAC323DB0A45EAC121C912B6F14E
:102AD00020050DDD63FA05F6EB4086EA0305124298
:102AE00018BF45F00105C01851F100010CD213E0E8
:102AF00062FA06F5F2405540F3415A40B340F340C4
:102B00005A408018594107D349085FEA30005FEA0C
:102B1000350528BF45F0010501F58011420875F122
:102B2000004250F1000041EB04514E0016F5001F29
:102B300070BC38BF70470020090D090570471CEBB9
:102B4000410F10D252EA43060BD0BCEB410F05D81F
:102B50000C0DAB43661E342EB6DD02E0AB4380188D
:102B6000594170BC704770BC70470000F0B540F22E
:102B7000FF7581EA030C0CF0004C15EA11541DBFDF
:102B800015EA1357AC42AF42E5E0BC41C1F3130173
:102B9000C3F31303801A994143F4801304D2641ED3
:102BA0004000494180185941C90241EA5051B1FBE6
:102BB000F3F603FB1611A2FB0675D7EBC020A94163
:102BC00002D2761E80185941C90241EA5051B1FB28
:102BD000F3FE03FB1E11A2FB0E75D7EBC020A9412B
:102BE00003D2AEF1010E80185941890241EA905199
:102BF000760546EA8E2EB1FBF3F603FB1611A2FB17
:102C00000675D7EB8020A94102D2761E8018594163
:102C1000C90241EA50514EEA060EB1FBF3F603FB3E
:102C20001611A2FB0675D7EBC020A94102D2761E71
:102C300080185941C90241EA5051B1FBF3F703FB37
:102C40001711A2FB0735D3EBC020A94167F100079C
:102C50000CBF004247F0010766F3D5274FEA1E314B
:102C6000B80814F5806412DDBD0775F1004250EB21
:102C70000E5051EB045111F5801F5CBF41EA0C016D
:102C8000F0BD4CF07F6141F0E0410020F0BDBD0798
:102C90006D0840EA0E5041F48011D4F10104B4F102
:102CA00020060ADAC4F120060200E04001FA06F329
:102CB000E1401843B24015430EE0342C13DCC6F15A
:102CC000200445EA40056D0820FA06F2154321FA72
:102CD00006F0A1400D43002175F1004250F10000C3
:102CE00051EB0C01F0BD00205FEA0C01F0BDCFB943
:102CF00092185B41B3FA83F704BFB2FA82F6BF19A8
:102D00000B3FB7F120062FBF02FA06F3BB40C7F115
:102D1000200622FA06F638BF3343BA401CB1E41944
:102D2000641E33E77F4231F00041B1FA81F404BF01
:102D3000B0FA80F6A4190B3CB4F120062FBF00FABC
:102D400006F1A140C4F1200620FA06F638BF31434F
:102D5000A0403C1B1AE7AC421ABF05EA1357AF422A
:102D600012E050EA41061CBF52EA4306BFE750EAB0
:102D70004107304661461CBF41EA0551F0BD52EAA9
:102D8000430C08BFC143F0BD00204FF4001616EB02
:102D9000410F98BF16EB430F08BF16EB410F24BF3E
:102DA000C14305E016EB430F0CBF61464CEA0551E9
:102DB000F0BD0000400D491840EA81200CD2490DB9
:102DC000A1F58061491C40F0004005DBD1F11F01F5
:102DD00054BFC840C017704700207047014648B133
:102DE000B0FA80F18840C91CC1F58461090501EB86
:102DF000D021400570470000B0B581EA030C0CF00B
:102E0000004C40F2FF7515EA11541DBF15EA135727
:102E1000AC42AF4239E0E41923EA455343F480134E
:102E2000C90241F0004141EA505EC7021100A7FB10
:102E3000020200284FF00000EEFB01204FF00001DD
:102E4000E3FB072118BF42F001024018002149416D
:102E5000E3FB0E01A4F580640F0302D2520040414F
:102E6000494154F101046CDD470872F1004250F110
:102E7000000051EB0451A1F580115CBF41EA0C0147
:102E8000B0BD4CEA05510020B0BD05EA1357AC4275
:102E900014BFAF4241E050EA410E1CBF52EA430E5C
:102EA00002E061460020B0BD24423C441BD15FEAF1
:102EB000070EF6D0090302BF01460020AEF1140E42
:102EC000B1FA81F7AEEB070401FA07FE0C37C7F140
:102ED000200100FA07F7C8404EEA000E23EA4553E6
:102EE00043F48013A2E733F00043B3FA83F704BF3F
:102EF000B2FA82FE77440B3FE41BB7F1200E2FBFDE
:102F000002FA0EF3BB40C7F1200E22FA0EFE38BFC4
:102F100043EA0E03BA40641C82E750EA410E14BF34
:102F200052EA430E6FF000014FF4001717EB430F06
:102F30008ABF194617EB410FB5E74CEA055100204F
:102F4000B0BDD4F10104B4F120070FDAC4F12007B9
:102F5000520828BF42F0010210FA07F501FA07F7FC
:102F6000E1BF2A43E0403843E1400FE0352C98DCD4
:102F7000C7F1200452EA400220FA07F218BF42F0DB
:102F8000010231FA07F0A1400A43002172F1004228
:102F900050F1000051EB0C01B0BD0000BBBBE1B132
:102FA000B2F5803F80F07E80022A1ED98C46B1FBAC
:102FB000F2F102FB11C31B0443EA1043B3FBF2FC22
:102FC00002FB1C3380B240EA0343B3FBF2F002FB86
:102FD000103240EA0C4000237047022A05D984468B
:102FE000B0FBF2F002FB10C270474AB105D100F00D
:102FF000010249085FEA3000704700220023704751
:1030000000F09AB90B0002000021002070479042A6
:1030100071EB030CF6D3B3F5803F2FD2F0B5B3FAC2
:1030200083F7B1FA81F4A7F10F0E3D1B5340CEF1A7
:10303000200602FA0EF2F3415340B5F10F0746D8CD
:103040000F3C2C444140C4F12006A040F1414140D6
:10305000B1FBF3F603FB1611A2FB0645001BA941C9
:1030600002D2761E8018594180EA010221FA0EF33D
:1030700062FA0EF200215A403046F0BD30B4B1FB86
:10308000F3FC03FB1C11A2FB0C45001BA94103D25E
:10309000ACF1010C8018594130BC02460B46604629
:1030A00000217047B2F1807F65D3F0B5B2FA82F7A4
:1030B000B1FA81F4C7F10F063D1B22FA06F307F1BE
:1030C000110EF24120355A40B5F10F07B8D94140F1
:1030D000C4F12006A040F1414140B1FBF3FC03FBE9
:1030E0001C11A2FB0C45001BA94103D2BCF1010C31
:1030F000801859410F2F12D30F3FC90341EA5041A5
:10310000B1FBF3F603FB1611A2FB0645D4EBC0306E
:10311000A94102D2761E8018594146EACC3C07B339
:103120004140C7F12006B840F1414140B1FBF3F600
:1031300003FB1611A2FB0645001BA94102D2761E15
:103140008018594180EA010221FA0EF3C7F12004E8
:1031500062FA0EF20CFA07F05A402CFA04F13043EE
:10316000F0BD80EA010221FA0EF3002162FA0EF2AC
:1031700060465A40F0BD8C46B1FBF2F102FB11C330
:103180001B0243EA1063B3FBF2FC02FB1C331B027D
:103190004CEA002043EA1063B3FBF2FC02FB1C3351
:1031A0001B024CEA002043EA1063B3FBF2FC02FB73
:1031B0001C331B024CEA002043EA1063B3FBF2FC11
:1031C00002FB1C324CEA002000237047841A71EB8A
:1031D000030604D26E40001BB141121973414FF433
:1031E000001C1CEB410F34BF7CEB430683E00C0D4D
:1031F000A4EB1356362E00F37C80012E45EAC32340
:1032000041DC43EA525312BFD20292025B0824050A
:1032100045EAC12141EA5051D2EBC020994125D461
:1032200007D1B0FA80F610FA06F162D000202036FD
:1032300008E0B1FA81F6B140C6F1200220FA02F2AC
:103240001143B0404FEAF474B4EB465434F0010635
:103250004FEA74040AD8D6F50016760D04F000443F
:10326000F04061FA06F25040F1404840C00A40EA9E
:10327000415021F0004128BF5FEA500550F10000A5
:1032800044EBD12135E0DB0A45EAC121C90AB6F198
:1032900020050EDD42EA0242120CC5F1200603FAB7
:1032A00006F6EB4042EA06056D42984161F10001E5
:1032B0000DE062FA06F5F240554063FA06FC82EA38
:1032C0000C02F3405A406D42904161EB030111F44E
:1032D000801F05D1641E620502D06D004041494146
:1032E00021F48011430875F1004350F1000041EBD7
:1032F000045170BC70471CEB410F15D223F0004302
:1033000052EA43060BD04FEA4C0CBCEB410F04D8F9
:103310000C0D661E342EB7DDEBE7801A994150EA9A
:10332000410608BF0021E4E708BF1CEB430F28BF9C
:103330006FF00001DDE70000704700000EB418B523
:1033400004460898012817D1A06B20F48030A063B0
:10335000E168DFF820090140E160E16821F44011F3
:10336000E1600F98012803D1E06840F48010E0602C
:10337000204600F06BFC09E0E06840F04000E060AF
:10338000204600F063FC4FF48030A06306980128CB
:1033900007D1A06840F00600A060A06840F02000BF
:1033A000A060002012BC5DF810FB816841F00101B3
:1033B00002E081684908490081600020704780B5BB
:1033C000C26822F0C0420129C26003D1C16841F045
:1033D000005103E019B9C16841F08041C160322059
:1033E00000F0CCBB0EB42DE9F8010246906B40F41E
:1033F00000109063109B5BB9906B20F400109063F9
:10340000116841F040011160106840F080001060C8
:1034100002F56060002102F5006401602668266004
:103420000B98012808D1089808B9216807E020689E
:1034300040F00100206003E0216841F003012160B9
:103440004FF484601061DFF830180846401E02D047
:103450001669B706FAD410201061491E02D010690F
:10346000C606FAD400202061002161614FF0FF30D0
:10347000A061E161069808B302F51067FF214FF0E3
:1034800090464FF000083D68002D4CBF3E60C7F8E5
:103490000080C7F81080B9602037401EF3D106982D
:1034A00002F530652F68002F4CBF2E60C5F80080F4
:1034B000C5F81080A9602035401EF3D1206920F4A2
:1034C000807020610998012809D1DFF8B0172163C5
:1034D000256B45F4803545F003052563216B0024F9
:1034E00094616FF08041516118B9906940F010000B
:1034F00090619169DFF88807014391610C9818B1D8
:10350000906940F008009061012B05D1906940F06E
:10351000804040F0040090610020BDE8F20103B05B
:103520007047890141F020010161DFF84C17491E05
:1035300004D002699306FAD4002070470320704734
:1035400010210161DFF83017491E04D00269D3064B
:10355000FAD40020704703207047014601F500614E
:1035600000208A6812F0060F11D08A6802F0060265
:10357000022A1EBF8A6802F00602062A01D1032031
:103580007047896801F00601042908BF02207047CE
:1035900030B40B784D7800F50062012404FA03F38F
:1035A000012DD4691AD19BB22343D3610A7800EB71
:1035B000421000F510600468230427D404688B6867
:1035C000C978C3F30A0343EA814343EA825343F0D1
:1035D000805343F400431C43046017E044EA03446F
:1035E000D4610A7800EB421000F5306003681A04D9
:1035F0000CD403688A68C978C2F30A0242EA81429D
:1036000042F0805242F400421343036021E2002062
:10361000F0BC7047F0B40B46024618785F78144649
:1036200004EB4015012FDFF850064FF080414FF0BA
:1036300000662ED105F510652F6827F400472F602E
:103640001D7804EB451505F510652E601E7804EB1A
:10365000461505F5106529600146491E43D01D78C1
:1036600004EB451606F51066B5686E00F5D44FF408
:1036700084611161401E02D011698D06FAD404F5EF
:1036800000640122E1691878824092B29143E161BD
:1036900028E005F530652A6822F400422A601D788A
:1036A00004EB451707F530673E601A7804EB4215C6
:1036B00005F530652960197804EB411101F5306199
:1036C000401E10D08A68D506FAD404F500640121A2
:1036D000606840F480606060E0691A78914020EA98
:1036E0000140E06193E7FFE7F0BC03207047F0B4CE
:1036F00003460878DFF8944503EB40154878012825
:1037000040F0A280486905F510650028286913D1AA
:1037100004402C610C7803EB441000F51060046940
:1037200044F400240461087803EB401000F51060B5
:103730000469E40CE4043BE0C00CC00428610D788B
:10374000DFF84C7503EB451000F5106005692C405F
:10375000046108788C6803EB401000F5106005697F
:103760004E69A619761EB6FBF4F407EAC4473D433A
:103770000561087803EB401000F5106004694D699D
:10378000C5F312052C430461C878012811D10C78C7
:1037900003EB441000F51060046924F0C044046198
:1037A000087803EB401000F51060046944F0005401
:1037B0000461012A07D1087803EB401404F5106472
:1037C000086960610CE0CC78012C0CD04869E8B144
:1037D00003F500640126656B087886403543656310
:1037E000C878012812D103F500650C7803EB44106A
:1037F000AC68E50500F5106004D4046844F000549A
:10380000046003E0056845F080550560087803EB27
:10381000401000F51060046844F004440460C87867
:10382000012802BF0C78CD68002A72D1888AC01C9A
:1038300080086ED003EB043303F5805355F8041B66
:103840001960401EFAD164E005F530652869C00CA6
:10385000C00428610D7803EB451000F53060056960
:103860002C40046108788D6803EB4014486904F526
:10387000306470B92069C5F31205054325610C78E1
:1038800003EB441000F53060046944F40024046143
:1038900017E02818401EB0FBF5F080B22569DFF86C
:1038A000F06306EAC046354325610C7803EB441407
:1038B00004F5306425698E687043C0F31200284314
:1038C0002061012A06D1087803EB401202F530622C
:1038D000C8685061CA78012A12D103F500620878DD
:1038E000946803EB4010E20500F5306004D40468EE
:1038F00044F00054046003E0026842F08052026029
:10390000087803EB401303F53063196841F0044174
:1039100019607CE630B40B78DFF8704300EB431598
:103920004B78012B5DD14B6905F51065002B2B6998
:1039300013D11C402C610C7800EB441303F5106389
:103940001C6944F400241C610B7800EB431303F55D
:1039500010631C69E40CE40423E0DB0CDB042B6142
:103960000D7800EB451303F510631D692C401C61B5
:103970008B684C69A34288BF23464B610B7800EBF0
:10398000431303F510631C6944F400241C610B7895
:1039900000EB431303F510631C694D69C5F3120571
:1039A0002C431C61012A0B7800EB431303F51063D1
:1039B0001C6844F004441C6007D10A78096900EBD4
:1039C000421000F51060416143E04A69002A40D08E
:1039D00000F500600123426B09788B401A43426373
:1039E00037E005F530652B69DB0CDB042B610D78C6
:1039F00000EB451303F530631D692C401C614B69D6
:103A00000BB18B684B610C7800EB441303F530630A
:103A10001C6944F400241C610B7800EB431303F58C
:103A200030631C698D68C5F312052C43012A1C61A3
:103A300006D10A7800EB421303F53063CA685A6175
:103A4000097800EB411000F53060026842F0044252
:103A50000260002030BC704781B0DDF804C0BCF1CA
:103A6000000F0BD1DB1C9B0808D000EB023000F5E7
:103A7000805051F8042B02605B1EFAD102E1D21C87
:103A8000920806D000F58050036841F8043B521EAE
:103A9000FAD1084670474B780A78012B00EB4212A6
:103AA0000ED102F510621368002B03D4136823F0C3
:103AB00080431360097800EB411000F510600DE0C1
:103AC00002F530621368002B03D4136823F080439F
:103AD0001360097800EB411000F53060026842F491
:103AE00000120260002070474B780A78012B00EB2F
:103AF000421210D102F51062136823F40013136010
:103B0000CA78032A18BF022A19D1097800EB41109C
:103B100000F510600FE002F53062136823F4001323
:103B20001360CA78032A18BF022A08D1097800EB6B
:103B3000411000F53060026842F0805202600020BF
:103B4000704700F500600901026822F4FE6202601D
:103B500001F4FE610368194301600020704780B5DD
:103B600000F50060416821F0020105E080B500F534
:103B70000060416841F002014160032000F08AF8D2
:103B8000002002BD0146486989690840704700F578
:103B900000618869C9690840000C704700F5006140
:103BA0008869C969084080B27047024602EB41103B
:103BB00000F5306002F50062806851690840704786
:103BC000024602F5006302EB411218695B6B02F5D5
:103BD0001062CB40DB01926803F080031843104071
:103BE0007047406900F00100704700F5106100F572
:103BF00000600A68D20AD2020A60826802F00602F5
:103C0000042A03D10A6842F003020A60416841F4C1
:103C1000807141600020704700F53060002303612F
:103C20000129D0F810C04CF4002CC0F810C0036972
:103C300043F018030361036943F0C043036103D1F8
:103C400042614FF080210160002070470A4A11460E
:103C5000491E0DD00369002BFAD5016941F001011D
:103C60000161521E04D00169CB07FAD400207047CD
:103C700003207047BFFFBDFF410D0300000180001E
:103C800000383C80002001B070470000FFFF07E0D3
:103C90000000F81F38B5044600F010F814F1010FC9
:103CA000054602D004480178641800F007F8401B6C
:103CB000A042FAD331BD00BF302C0020014840683B
:103CC000704700BF302C002070B58AB00446002534
:103CD00014B901200AB070BD032084F8B90320464E
:103CE00000F0D6FB2068FFF764FB83B0211D684617
:103CF0003422FEF74FFD0EBC2068FFF71FFB206843
:103D00000021FFF75CFB04F1380000220121417023
:103D10000570C5800021C2708160C26041616D1C68
:103D20001C300F2DF2D3002004F5FC7200235370D9
:103D3000A2F5DD75107028800025D3709360D560E2
:103D40005361401C26680E441C32091D0F28C6F81A
:103D50000451ECD383B0211D68463422FEF71AFDCE
:103D60000EBC2068FFF73EFB012084F8B903616AAE
:103D7000012904BF204600F0DBFC2068FFF7F6FEB7
:103D800000200AB070BD10B5044694F8B8030128AD
:103D900001D1022010BD012084F8B8032068FFF78C
:103DA000DEFE2068FFF701FB5EE22DE9F84F0646D4
:103DB00086B030680290002205920024FFF711FFC0
:103DC000002840F04E823068FFF7DCFE002800F04B
:103DD00048823068FFF7D6FE800704D53068416915
:103DE00001F0020141613068FFF7CCFE000350D5BD
:103DF0003068FFF7CCFE029D804606F5007A05F597
:103E0000306506F56F7941E05FEAC87038D53068F3
:103E1000E1B2FFF7CAFE0746F80722D50121A960E3
:103E2000306901280CD1DAF800002969C1F31201C8
:103E3000411ACAF81010DAF804100844CAF804004D
:103E4000E1B2304600F046FB3069012808BF002C83
:103E500007D1D6F80C0220B930684A460121FFF795
:103E6000DBFE380704D5304600F02EFB0820A860A2
:103E7000F80644BF1021A960B80644BF2021A960FC
:103E8000641C4FEA580820350AF11C0AB8F1000FEB
:103E9000BAD1029800F5006001903068FFF772FE19
:103EA000400340F197803068FFF778FE8046029823
:103EB00000F51060002406F14409039033E0451A30
:103EC000B868A84238BF0546E81C4FEA900B306935
:103ED000C0B20090ABB2F968E2B25046FFF7BCFD49
:103EE000F8684019F860B9696918B961049881697E
:103EF00089B28B453EBF7869B969814201D20028F9
:103F0000DDD1CDF800A035B90AF500600122416B82
:103F1000A24091434163641C039820304FEA580843
:103F2000039009F11C09B8F1000F53D05FEAC87083
:103F3000F1D53068E1B2FFF743FE0746039DF8076D
:103F400022D50199486B0122A24090434863012089
:103F5000A8603169012906D1D9F8000059F8041C7C
:103F60000144C9F80010E1B2304600F0BDFA3069F2
:103F7000012808BF002C07D1F06C28B9306806F57D
:103F80006F720121FFF748FE380744BF0821A9607E
:103F9000F80644BF1021A960780644BF4021A960FB
:103FA000B80744BF0221A9603806B4D5A9F10C07AF
:103FB0007869BD69D6F800A0451BB868A84238BF2B
:103FC0000546E81C4FEA900B0AEB441000F5106020
:103FD00004908BE73068FFF7D5FD002817D50199CD
:103FE000486840084000486006F57B700278012A66
:103FF00005D100210170304600F0ADFB02E03046F3
:1040000000F094FA3068416901F000414161306884
:10401000FFF7B8FD00050BD501998868C10744BFBB
:10402000304600F07FFA3068416901F40061416177
:104030003068FFF7A7FD000116D53268506900F01F
:104040000060506106F57B71087850B901230B7050
:10405000506DC0F3830048600121304600F07BFBC7
:1040600002E0304600F05EFA3068FFF78BFDC004D6
:104070004AD50199486840084000486010213068DE
:10408000FFF74FFA0299059801F51061FF2205E04C
:1040900001F500738A609A60401C20317368984271
:1040A000F6D301994FF0FF3088610198C16941F062
:1040B0000111C161306B002801980BD0D0F8841039
:1040C00041F00B01C0F884100199486C40F00B00DE
:1040D000486408E0416941F02B0141610199086998
:1040E00040F00B00086106F56F720198016821F439
:1040F000FE61016031693068C9B2FFF78DFD30683B
:10410000416901F4805141613068FFF73BFD800453
:1041100024D53068FFF769FD3068C16821F470511B
:10412000C160FFF71AFA40B9F0604FF40071716195
:104130003068C16841F4105107E00320F06040216D
:1041400071613068C16841F4C051C160304600F00F
:10415000D8F93068416901F4005141613068FFF7D6
:1041600011FDC00637D53068816921F010018161E9
:104170000298056A05F00F01C1EBC10006EB800053
:1041800000F5FC77C5F34340022812D147F6F070E2
:1041900005421BD0F9680298C5F30A12FFF76FFCBD
:1041A000F968C5F30A100144F960BA698018B8616A
:1041B0000CE006280AD10298082206F56F71FFF775
:1041C0005EFCB969C5F30A104118B96130688169AC
:1041D00041F0100181613068FFF7D4FC000707D57A
:1041E000304600F08AF93068416901F00801416108
:1041F0003068FFF7C7FCC00208D5E1B2304600F0D6
:104200009DF93068416901F4801141613068FFF720
:10421000B9FC800208D5E1B2304600F08BF9306875
:10422000416901F4001141613068FFF7ABFC4000C7
:1042300007D5304600F086F93068416901F08041C9
:1042400041613068FFF79EFC40070AD531684C6831
:10425000600744BF304600F079F9306841680C438C
:10426000446007B0BDE8F08F002084F8B80310BDAB
:1042700010B5044694F8B803012801D1022010BDFE
:10428000012084F8B8032068FFF75BFCECE770B509
:10429000054601F07F00C0EBC00405EB84000E066C
:1042A0004CBF00F1380400F5FC7401F07F00207071
:1042B000C9096170A260E370607808B12178E1807B
:1042C000022B04BF0020207195F8B803012801D10A
:1042D000022070BD012085F8B80321462868FFF749
:1042E00057F9002085F8B80370BD10B5044601F0F9
:1042F0007F00C0EBC00204EB82000B064CBF3830DD
:1043000000F5FC7001F07F020270C909417094F859
:10431000B813012901D1022010BD012284F8B8236D
:1043200001462068FFF776F99EE738B51C4601F094
:104330007F03C3EBC30500EB850303F5FC73002586
:104340005C6101F07F0100249C61DA605D7019708E
:104350000469012C08BF1A611FE001F00F01C1EBD5
:10436000C10200EB8200D0F8100280B2704738B56D
:104370001C4601F07F03C3EBC30500EB8503383314
:1043800001255C6101F07F0100249C61DA605D70B1
:1043900019700469012C08BF1A61026900680029BC
:1043A000D2B2194602D1FFF7B5FA01E0FFF79FF943
:1043B000002032BD38B50A06054607D501F07F005A
:1043C000C0EBC00305EB8300383005E0C1EBC10250
:1043D00005EB820202F5FC700123837001F07F047B
:1043E0000470C909417095F8B813012901D1022060
:1043F00032BD85F8B83301462868FFF74CFB34B965
:104400002969286805F56F72C9B2FFF705FC00201D
:1044100085F8B80332BD10B50A06044607D501F089
:104420007F00C0EBC00304EB8300383005E0C1EB34
:10443000C10204EB820202F5FC700023837001F0DC
:104440007F020270C909417094F8B813012901D1A3
:10445000022010BD012284F8B82301462068FFF72E
:1044600043FB01E710B5044694F8B803012801D1D5
:10447000022010BD012084F8B8030A06206804D584
:1044800001F07F01FFF74DF801E0FFF759F8EBE687
:1044900080B57048016841F020710160426A42F4C1
:1044A0002A2242620022816841F0707181606A486C
:1044B000016841F0800101604320032100F059F9B7
:1044C00066480821016001BD00F56F71D0F8F8035E
:1044D00000F0C2B9C1EBC10300EB8302D0F8F803CE
:1044E000D2F8042200F0E3B9C1EBC10300EB830270
:1044F000D0F8F803526C00F00DBAD0F8F80300F0D1
:1045000089BA38B504460125E06800B90025D4F819
:10451000F80300F04EFAD4F8F8032946BDE8344019
:1045200000F067BAD0F8F80300F066BAD0F8F803E4
:1045300000F06ABAD0F8F80300F084BAD0F8F803B3
:1045400000F074BAD0F8F80300F088BAD0F8F80395
:1045500000F086BA4FF0A04178B5414C21600522A9
:1045600040216260616100230222012183B0236344
:1045700023612362A261E161E260E3626362C4F8E5
:10458000F803C0F898422046FFF79EFB0A216846D0
:1045900000F072FA002000F073FAC01C411000EB2A
:1045A00091708003BDF80220000CADF80000102AC5
:1045B000BCBF1023ADF80230BDF80250401981B2E3
:1045C000DD26DD3140F2411291423ABFC0F5A070C4
:1045D000064600F01CFEB1B2204600F0A5F8BDF87A
:1045E00000200021204600F07FF82A4601212046C5
:1045F00000F07AF8002004B070BD80B5D0F89802C1
:10460000FFF7C1FB002002BD10B51C461346D0F8D1
:1046100098022246FFF73BFE002010BD10B5D0F8EF
:1046200098020C46FFF761FE6101200608D501F4EF
:104630007E6101F1A04101F510610A480A6805E0B8
:1046400001F1A04101F5306107480A6802400A60A3
:10465000002010BD000002403438024008E100E0B4
:10466000F82C0020007833FC0078FFFF80B5D0F8EC
:104670009802FFF7F7FE002002BD80B5D0F898023F
:10468000FFF798FE002002BD80B5D0F89802FFF732
:10469000C2FE002002BDD0F8980201F07F02C2EBFA
:1046A000C203090600EB830002D590F83A00704778
:1046B00090F8FA01704780B5D0F89802FFF7D8FD5E
:1046C000002002BD80B5D0F89802FFF750FE002010
:1046D00002BD80B5D0F89802FFF727FE002002BD8A
:1046E000D0F89802FFF739BE70B403685C6A08001E
:1046F00003D144EA02449C6213E0986A04EB10443C
:10470000481E012807DB1D46D5F804612D1D401EFB
:1047100004EB1644F8D103EB810044EA0244C0F8EC
:104720000041002070BC7047006841620020704763
:10473000016800F57B7001220023826003708869A4
:1047400040F000608861486D40F0805040F0030008
:104750004865002070477047224B19684FF6FF02EA
:104760000002114000F4E06008431F49084318604C
:10477000704730B41B4B1C68C4F30223C3F1070518
:10478000052D28BF0F2405D20125C3F1070405FA22
:1047900004F4641E1D1D072D34BF0023DB1E2140C1
:1047A0009940012404FA03F35B1E1A4011430901E6
:1047B000020003D40D48815430BC70470C4A00F00D
:1047C0000F00131803F8041C30BC7047010008D414
:1047D000012200F01F00074B02FA00F0490943F8DC
:1047E000210070470CED00E00000FA0500E400E055
:1047F00018ED00E000E100E038B508B9022032BD54
:1048000000F51D74A3690BB10025A56101B16161BB
:10481000012121700270FFF79DFE002032BD02468B
:10482000002011B1C2F88C1270470220704780B589
:10483000FFF7E3FE002002BD10B5D0F88C22022461
:104840001AB11268904700B90024204610BD80B507
:10485000D0F88C2253680CE138B5044604F5207575
:10486000284600F047FF04F51B7001210160428BD0
:10487000017D426011F01F0003D002280BD005D348
:104880000EE02946204600F005FD0EE029462046B0
:1048900000F056FE09E02946204600F07CFE04E0C8
:1048A00001F080012046FFF7E8FE002032BD38B558
:1048B000044610460A0004F51B7320D11968032929
:1048C00026D104F5A6714A680D68AA420AD2AD1A2B
:1048D0000D60954238BF2A46014692B2204600F04C
:1048E00068FF15E0196A086928B1187A032802D10F
:1048F000096920468847204600F063FF08E01A6AED
:10490000906928B1187A032802D19269204690470D
:10491000002032BD38B5044610460A0004F51B7568
:104920003CD12968022933D1226A616A91420AD2B4
:10493000521A2262014692B2204600F028FF00235C
:104940000022002114E0E269B2FBF1F001FB10202B
:1049500090B98A4210D3686882420DD200220021A9
:10496000204600F014FF0020686000230022002190
:104970002046FFF7AEFE0BE0296AC86828B1287A06
:10498000032802D1C96820468847204600F020FF4E
:10499000287B01280BD10021297308E02A6A50697D
:1049A00028B1287A032802D1526920469047002076
:1049B00032BD10B50446402300220021FFF724FE3B
:1049C0004022C4F850214023002280212046FFF7D6
:1049D0001BFE402004F51D7260620121D069117038
:1049E00028B1926961685368C9B22046984700208F
:1049F00010BD01740020704700F51D70042201787D
:104A0000417002700020704700F51D704178017000
:104A10000020704780B500F51D710A78032A03D184
:104A20008969C96901B18847002002BD80B500F5D8
:104A30001D721378032B03D19269126A02B1904759
:104A4000002002BD80B500F51D721378032B03D141
:104A50009269526A02B19047002002BD002070475F
:104A600080B500F51D720123137092694168536887
:104A7000C9B29847002002BD002200F0B1BE00007C
:104A800010B5044600F062FF7CB1010004D002289A
:104A900006D0032807D001E00A4902E00A4A03E0F1
:104AA0000A49216001E00A4A226000BF0AA131F8E8
:104AB000100010BD80B500F049FF064951F82000F4
:104AC00002BD0000E8770008287700086078000839
:104AD00018790008402C00207700BD00B600B60011
:104AE000F8B5DFF83057DFF8306768700021FFE76E
:104AF000297004244FF47A77009702232A467821FC
:104B000005F1080000F0BFFF68B1306840F4000014
:104B1000306005F10800316821F40001316000F0D7
:104B200047FF641EE8D1F1BDF8B5DFF8E85600266E
:104B3000EE702E71B020FFF7D3FF0020FFF7D0FFFB
:104B40001020FFF7CDFF00274FF48064202000F0F5
:104B50001AF8761CB0B281280EDB7F1C2F7100265C
:104B60002879EE705038C0B2FFF7BAFF0020FFF787
:104B7000B7FF1020FFF7B4FF641EE7D10520E870EF
:104B800000212971F1BDF8B5DFF89056DFF888767D
:104B9000DFF8806600EB800040212844297004245F
:104BA000027A6A70417AA970827AEA70C17A2971B0
:104BB0000021007B6871A9714FF47A70009007237F
:104BC0002A46782106F1080000F05DFF68B13868D8
:104BD00040F40000386006F10800396821F4000153
:104BE000396000F0E5FE641EE6D1F0780830C1B20D
:104BF0008129A8BF0520F070F1BD10B5044603E07F
:104C000014F8010BFFF7BFFF20780028F8D110BD82
:104C100080B5AE20FFF764FFD520FFF761FF80204D
:104C2000FFF75EFFA820FFF75BFF3F20FFF758FF6D
:104C3000D320FFF755FF0020FFF752FF4020FFF77A
:104C40004FFF8D20FFF74CFF1420FFF749FF202076
:104C5000FFF746FF0020FFF743FFA120FFF740FFCB
:104C6000C820FFF73DFFDA20FFF73AFF1220FFF7D9
:104C700037FF8120FFF734FFCF20FFF731FFD92026
:104C8000FFF72EFFF120FFF72BFFDB20FFF728FFB8
:104C90004020FFF725FFA420FFF722FFA620FFF703
:104CA0001FFFBDE80240AF201AE738B540F61C04EC
:104CB000DFF870552B4602222146682000F021F8CB
:104CC0002B1D4FF4A0524FF48061682000F019F8BA
:104CD00041F204402B184FF480520021682000F06C
:104CE00010F842F204402B1818222146682000F0E8
:104CF00008F8AB1C214601B0BDE830400222682014
:104D0000FFE72DE9F0478246894614469846FEF7AC
:104D1000D5FF0546DFF8FC74DFF8046500207866EF
:104D2000316841F480713160306840F480603060F7
:104D30007069C1070AD4FEF7C1FF401B2928F7D3C9
:104D4000786E401C0B287866F2DB5CE07069B16914
:104D5000C6F810A000207866706981070AD4FEF7B3
:104D6000ADFF401B2928F7D3786E401C0B287866CE
:104D7000F2DB48E000227069B1697A66C9F3072066
:104D80003061706941070DD4FEF798FF401B292858
:104D9000F7D3786E396E401C491C0B28786639664B
:104DA000EFDB30E00021796609F0FF0030617069C7
:104DB00041070DD4FEF782FF401B2928F7D3786EF8
:104DC000396E401C491C0B2878663966EFDB1AE007
:104DD000CCB198F800003061002179667069410714
:104DE0000DD4FEF76BFF401B2928F7D3786E396E80
:104DF000401C491C0B2878663966EFDB03E0641E13
:104E000008F10108E5D1306840F400703060BDE879
:104E1000F0872DE9F843A0B000F08EFF00F0A0F974
:104E2000DFF80484DFF80474D8F80000DFF80064C9
:104E3000DFF8E043DFF8E89340F00300C8F8000033
:104E4000D8F8001041F00201C8F80010D8F810009E
:104E500040F40000C8F81000386820F44070386052
:104E6000396841F400713960786840F0100078606A
:104E7000B86820F44070B860B86840F40070B8605A
:104E8000F86820F44070F860F86840F48070F860CA
:104E9000386A20F470203862386A40F48020386222
:104EA000306820F440303060316841F400313160C6
:104EB0000021706840F480707060B06820F4403069
:104EC000B060B06840F40030B060F06820F440306A
:104ED000F060F06840F48030F060706A0009000112
:104EE0007062706A40F00400706221614CF25030D0
:104EF000E0604FF4804100206061E0612062606208
:104F0000A062A161C4F8089004F1080000F050FD0F
:104F100008B101202066DFF81C53D9F8000028638F
:104F2000D9F804106963D9F81C00A863D9F82010D7
:104F3000E963D9F810002864D9F808106964D9F831
:104F40000C00A864D9F81410E964D9F81800286591
:104F50003968296078686860B968A960F868E860AD
:104F6000396A2961786A68614BF680373168A961CE
:104F70007068E861B1682962F0686862316AA962A4
:104F80000021706A0FF2FC26E8620091D8F8100048
:104F900040F40000C8F81000D8F8100000F4000039
:104FA000009000980091D8F8100040F00200C8F876
:104FB0001000D8F810000FF2C02800F00200009096
:104FC000009800F06EF8FFF723FEFFF7ADFD00201C
:104FD000E07001212171B120FFF782FD0020FFF771
:104FE0007FFD1020FFF77CFD0FF28020FFF705FE0C
:104FF0000022914905F16000FFF7FEFB00F0B6FCCE
:1050000000F0B9FC8D4905F16000FFF708FC8C4900
:1050100005F1600001F0DCF905F16000FFF707FC25
:1050200030BF686D01281AD100216965E1702171D6
:10503000B020FFF755FD0020FFF752FD1020FFF7CD
:105040004FFDE36DA2783146684601F0D7F9684616
:10505000FFF7D3FDE06DB84208BFFFF726FE7948A1
:105060000268E86DAA658242DAD0EA654146684680
:1050700001F0C4F90020E07003212171B320FFF793
:105080002FFD0020FFF72CFD1020FFF729FDE9463A
:1050900099F800000028C3D019F8010BFFF773FD41
:1050A000F6E718B585B014216846FFF7E5FC402205
:1050B0000092022101910122029200210391022219
:1050C00004926946604C204601F0B8F90221019132
:1050D000012202928020002100900391022204927A
:1050E0006946204601F0AAF9584800210160816113
:1050F00001628160026842F4206202604FF6FF7232
:10510000816941F4704141F0F0018161016A41F02F
:1051100002010162016A41F020010162816941F0EE
:1051200001018161816941F480718161816841F08F
:1051300003018160C262012141610268444942F079
:1051400001020260026A0A6083694B6082688A60B9
:105150000368CB6042680A610069486106B010BD0F
:1051600080B53C4A3C4813684FF6FF010B400343AF
:105170001360002001F042FA384840F205710160E6
:105180003748026842F48032026001688A03FCD525
:105190004FF41442334941608260816841F08001DC
:1051A0008160026842F08072026001688A01FCD569
:1051B000816841F002018160816801F00C010829D9
:1051C000FAD1016B41F007010163016BCA07FCD5FD
:1051D000016B8A07F9D5016B4A07F6D5016C41F4DA
:1051E00000010164016C41F004010164026B1E497D
:1051F0000A60436B4B60026C8A600368CB60826814
:105200000A6140684861BDE8014000F0BDBB7047DD
:105210007047000048340020203802400C03002072
:10522000005C0040140800203038024000040240B6
:105230000000024010000020A82C0020502C00206C
:10524000942C002024040040000802400004004088
:10525000AC3500200CED00E00003FA05003C0240F4
:1052600000380240085440279435002050434D2018
:105270004D6F646500000000456E633A202569208B
:1052800020202000256920626974202569206B4850
:105290007A0000007CB50D460446287810F06000C6
:1052A0000BD0202818BF402840F0E78004F51D727D
:1052B000204693699A6890473DE16878092800F292
:1052C000DC80DFE810F00E012A01DA002301DA00A9
:1052D00096000A00DA00FB00B5006888010A491E42
:1052E000062900F2CA80DFE801F063541BC8C81029
:1052F0000400207C002840F0C08004F51D71684641
:105300008A69116B8847072250E0207C002840F012
:10531000B48004F51D7168468A69516B88474EE078
:10532000C0B2052800F2A980DFE800F02B231B1390
:105330000B0304F51D725369207C9A6969469047F6
:105340003DE004F51D725369207C5A696946904717
:1053500035E004F51D725369207C1A69694690474F
:105360002DE004F51D725369207CDA686946904788
:1053700025E004F51D725369207C9A6869469047C0
:105380001DE004F51D725369207C5A6869469047F8
:1053900015E004F51D708169207C0028684602D163
:1053A000896A884701E0C96A88470222427006E09C
:1053B00004F51D725369207C1E686946B047BDF82C
:1053C000001089B1E988002900F0B280BDF8001012
:1053D000EA88914288BF1146ADF800100146BDF839
:1053E0000020204600F0CBF9E888002840F0A38098
:1053F0009EE0A888002804BFE88800283DD16D8879
:10540000802D3AD204F51D7605F07F05307803280B
:1054100033D0B57029462046FFF74DF9204600F0FD
:10542000D0F9002D07BF012131700220307082E0D9
:10543000424E68883070317802291EDA04F51D70FA
:105440000278022A22D0032A2BD141B9022101700D
:105450000020606000212046FFF7F9F968E06068ED
:10546000814265D0C1B22046FFF7F1F93178616021
:105470002046FFF7E1F902285AD180212046FFF7A4
:10548000FCF800212046FFF7F8F854E000294FD03F
:105490006160032202702046FFF7CEF90228ECD0AB
:1054A00046E080212046FFF7E8F800212046FFF77C
:1054B000E4F831782046FFF7CAF93CE0E888012893
:1054C000DBD194F87402401E012804D9801ED4D187
:1054D0000122211D16E00020A060012204F1080134
:1054E00010E004F51D700178491E0229C5D8EB882B
:1054F000022BC2D18068002100B10221E1600222AA
:1055000004F10C01204600F03AF914E06888012803
:1055100011D1012104F51D7009E004F51D70017819
:10552000491E0229A9D86B88012B04D10021816072
:10553000204600F046F9002076BD0000FC35002032
:1055400038B50D460446287810F060001CBF2028AE
:10555000402816D104F51D721078401E022810D87C
:105560002B79022B0DDA9269936820469847014601
:10557000E888002808BF00290BD1204600F021F957
:1055800007E080212046FFF778F800212046FFF74A
:1055900074F8002032BD38B50A780446087912F054
:1055A00060030AD0202B18BF402B72D104F51D7266
:1055B000204693699A68904773E002F06002202ABF
:1055C00007D104F51D72204693699A68BDE83840FA
:1055D00010474B78002B35D0012B14D0032B58D11A
:1055E00094F87452022D15D0032D52D14A882ABB4B
:1055F000002818BF802821D0C988F9B90146204663
:10560000FFF73BF81AE094F87422022A02D0032A2A
:105610000AD03EE0002818BF80283AD00146204634
:10562000FFF72BF8802139E04A88002A39D110F0A1
:105630007F0103D001462046FFF726F8204600F000
:10564000C0F82EE094F87412022902D0032916D073
:105650001FE0002818BF80281BD100F07F0101EB5C
:10566000810204EB820100064CBF143101F5A071E8
:10567000002008600222204600F081F811E000F0CE
:105680000F0101EB8102030604EB82010BD589694E
:10569000D9B980212046FEF7F0FF00212046FEF711
:1056A000ECFF002032BDD1F844110029F1D000F008
:1056B0007F0202EB820104EB810101F5A075002855
:1056C00018BF80280AD1002010E000F07F0101EB14
:1056D000810204EB820202F11405F0E70146204644
:1056E000FEF7D9FF401E8041C043C00F2860022250
:1056F0002946C0E70A7802704B7843708A78CB78E5
:1057000002EB032CA0F802C00A794B7902EB032CC0
:10571000A0F804C08A79C97902EB0123C3807047DD
:1057200010B504468021FEF7A8FF2046BDE81040D2
:105730000021FEF7A2BF00280B4600D1704770B4CD
:105740000146002400E0641C11F8015B002DFAD131
:105750002406E40DA41C14801178197003225A70D9
:10576000022207E010F8011BD4B2521C1955D6B220
:10577000521C9D5501780029F4D170BC704780B54A
:1057800013460222C0F86C22C361036201E080B5B7
:1057900013460A460021FEF795FF002002BD80B5A2
:1057A00013460322C0F86C2200F5A4721360536004
:1057B00001E080B513460A460021FEF78AFF00206B
:1057C00002BD80B50421C0F86C1200230022E1E77D
:1057D00080B50521C0F86C1200230022ECE7000020
:1057E00000B500BF130096469446103928BFA0E8C4
:1057F0000C50FAD85FEA417C28BF0CC048BF40F883
:10580000042BC90728BF20F8022B48BF00F8012B42
:1058100000BD00000FF2090181650022C2657047DA
:10582000032A80B508BF042291FBF2F189B200F08F
:1058300083FFBDE8014000F0E4BF10B5044600F06E
:105840009DFF5248524A534B046001211160587821
:105850000128204602D100F007F804E000F018FF0C
:10586000204600F04BFF21E010B5044600F086FF13
:105870004648474A0460012111604AF64442944276
:105880001CBF4BF68032944206D0434A94421CBF60
:10589000424A944205D009E04148016841F4801130
:1058A00003E03F48016821F480110160BDE8104029
:1058B00000F04CBF10B504463A48354A0470012147
:1058C000116000F05BFF2146354800F073FF204671
:1058D00000F0C7FFEAE72E4A0121116000F040BF47
:1058E00070B504460D4629482E49294B294E0460BF
:1058F0000D7001221A607078012802D100F006FFB5
:1059000002E0204600F0C4FE00F0BEFF284600F092
:105910007FFF284600F03CFF70780128204602D126
:10592000FFF7A2FF01E000F0E9FEBDE8704000F0E3
:105930000DBF0322C2804274022101710123174A64
:10594000026000210381C160017470471148007832
:105950007047154A13689168CB180E490360526866
:105960000B7803EB12431B04436070470948012185
:1059700001704170704718210848B1E70B48016871
:1059800041F480510160704770470000A43400204A
:1059900064000020F83500208858010000770100DD
:1059A000245801404A340020107AFF1F1408024096
:1059B000F8B5040001D10120F2BD04F13C0568787E
:1059C00020B900212970204600F0B5F92420687024
:1059D0002068016849084900016000F0A7FF0146FE
:1059E000DFF83C232368A1FB0220C20C5A606068E8
:1059F000DFF83033984208D34FF4967010FB02F270
:105A0000DFF82473A2FB0776720A2068521C026238
:105A100062689A4208D25200B1FBF2F0C0F30B0167
:105A2000042913D2042011E0A06820B902EB42023D
:105A3000B1FBF2F005E019204243B1FBF2F040F473
:105A4000804001050CBF012040F400402168C8617E
:105A5000E269206A216802430A60E06822692168DD
:105A600002438A60A069626921680243CA602021FA
:105A70002068026842F001020260002068606970DC
:105A80002063A870F2BD2DE9F84306468846144607
:105A90009946FEF713F906F13C0705467878202869
:105AA0000ED1306881698A070CD5FEF707F9401BD3
:105AB0001A28F6D30020306320217970B87038702E
:105AC00000F02AB939780129FAD001223A70016828
:105AD000CB0703D4016841F001010160306801681F
